:020000040800F2
:1000000008090020010100084B200008FD1300082A
:10001000492000086D0100080125000800000000CB
:100020000000000000000000000000002D23000878
:100030006F010008000000004D2000082F23000879
:100040001B0100081B0100081B0100081B01000820
:100050001B0100081B0100081B0100081B01000810
:100060001B0100081B0100081B0100081B01000800
:100070001B0100081B0100081B0100081B010008F0
:100080001B0100081B0100081B0100081B010008E0
:100090001B0100081B0100081B0100081B010008D0
:1000A0001B0100081B0100081B0100081B010008C0
:1000B0001B0100081B0100081B01000801140008B7
:1000C0001B0100080D1400081B0100081B0100089B
:1000D0001B0100081B010008F52400081B01000893
:1000E0001B0100081B0100081B010008DFF80CD0F1
:1000F00000F02AF8004800474125000808090020C0
:100100000648804706480047FEE7FEE7FEE7FEE7B1
:10011000FEE7FEE7FEE7FEE7FEE7FEE781230008D5
:10012000ED000008D2B201E000F8012B491EFBD21D
:1001300070470022F6E710B513460A4604461946F2
:10014000FFF7F0FF204610BD064C074D06E0E068C3
:1001500040F0010394E8070098471034AC42F6D30E
:10016000FFF7C8FF7833000898330008FEE77047B0
:100170007047000010B590F821100024022903D028
:100180000421816301243DE001680A6822F00E0227
:100190000A6001680A6822F001020A601A4A0168CE
:1001A000914201D1012121E0174A1432914201D13B
:1001B00010211BE0144A2832914201D1891515E023
:1001C000114A3C32914201D189140FE00E4A50325B
:1001D000914202D14FF4803108E00B4A64329142DF
:1001E00002D14FF4801101E04FF08071064A083AC5
:1001F0005160012180F82110002180F82010416B0E
:1002000001B18847204610BD0800024090F8210047
:10021000704700002DE9F84FDFF8B891002409F18C
:10022000040A0AF1040B23460F270BF1040EC9E060
:100230000125A5402A40AA427DD1674ED1F804C0CD
:10024000ACEB0608B44532D014DCBCF1030F3AD055
:1002500009DCBCF1000F2AD0BCF1010F1CD0BCF1AD
:10026000020F31D11DE0BCF1110F17D0BCF1120FFC
:100270002AD119E0B8F5881F19D006DCB8F5803FFF
:1002800015D0B8F5801F1FD111E0B8F5001F0ED0B2
:10029000B8F5041F18D10AE0CB6815E0CB681B1D28
:1002A00012E0CB6808330FE0CB680C330CE08B68AE
:1002B0002BB1012B4FF0080303D0456104E0042368
:1002C00002E0056100E00023FF2A01D8064601E0B4
:1002D00000F104064FEA840501D9A5F12005D6F8FE
:1002E000008007FA05FC28EA0C0803FA05F548EA3D
:1002F0000508C6F800804D68ED0062D5374DAE693F
:1003000046F00106AE61AD6924F0030605F0010573
:100310000095334D06EB050CDCF80850A607360FA8
:1003200007FA06F825EA0805DFF8B880404503D14A
:100330004FF0000817E044E0DFF8AC80404502D100
:100340004FF001080FE0DFF8A480404502D14FF0E4
:10035000020808E0DFF89880404502D14FF003081A
:1003600001E04FF0040808FA06F848EA0508CCF85E
:1003700008804D68D9F80060ED034D4601D516435D
:1003800000E096432E604D68DAF80060AD035546F4
:1003900001D5164300E096432E604D68DBF80060FF
:1003A000ED025D4601D5164300E096432E604D6890
:1003B000DEF80060AD02754601D5164300E09643B5
:1003C0002E60641C0D682A46E5407FF431AFBDE81D
:1003D000F88F0000000401400000111000100240DE
:1003E0000000014000080140000C014000100140E5
:1003F0000014014001488068704700001000002090
:10040000704770472DE9F041026800245168C76ABF
:1004100090F83E5090F83D60102D1CD0402D1AD021
:10042000036C002B7ED053694FF02805DB439F07F8
:1004300079D4CF43BF0576D4016C01B1946990F8AB
:100440003D3000219D430B466ED0C91E516180F89E
:100450003C30BDE8F081946953694FF42A0CDB43CA
:100460005FEAC37E4FF02A4604D06745F1D0B74219
:10047000EFD010E0CF43BF050DD4C16A614501D173
:10048000012103E0C16AB14201D10821C162BDE886
:10049000F04101F04FBB1E0716D4CE43B60513D46E
:1004A000416CC9B21161416B11B9826B002AD0D085
:1004B000896A19B9816B896A0029CAD000684168C4
:1004C00041F400614160C4E79E0706D4CE43B605FF
:1004D00003D4BDE8F04101F081BAE44352686407F7
:1004E0004FEA02521BD4002AB3DB1A0608D4CA43CF
:1004F000520505D45A0705D5BDE8F04101F012BAFE
:100500005A07A6D4C9438905A3D4102D03D0BDE84A
:10051000F04101F055BBBDE8F04101F0C9B9002A36
:1005200097DB02E015E029E015E05A0608D4CA433B
:10053000520505D45A0705D5BDE8F04101F0F6B8DB
:100540005A0786D4C943890583D4BDE8F04101F038
:1005500084B8946967E7556825F480655560E2437F
:10056000540700D50121120601D5828900E0028BD3
:1005700080F83C3092B2FFF744FF6AE7DC0606D40D
:10058000CC43A40503D4BDE8F04101F069BB212EA2
:1005900027D0292E25D05C0655D4CC43640552D4EF
:1005A0005B0752D590F83D10438D002B8BD012691C
:1005B000436A1A70426A521C4262428D521E428540
:1005C000428D002AD9D12A29D7D101684A6822F45C
:1005D00080624A602221016380F83D5000F0C0FA39
:1005E00037E71C0623D4CC43640520D45B0720D511
:1005F00090F83D10438D002BBFD0436A1B781361E8
:10060000426A521C4262428D521E4285428D002A2D
:10061000B3D12929B1D101684A6822F480624A60C5
:100620002121016380F83D5000F09BFA11E75B0740
:10063000A3D4C9438905A0D4418D00299DD0416A26
:10064000097811610AE05B0797D4C943890594D4FE
:10065000418D002991D01169426A1170416A491C8B
:100660004162418D491E4185F3E6704770B5040033
:1006700025D094F83D00002520B984F83C50204650
:1006800000F00AFA242084F83D002068016821F077
:10069000010101602068016841F4004101602068A7
:1006A000016821F40041016000F08AFB4D4A616855
:1006B000914201D84C4900E04C49884201D20120C6
:1006C00070BD4B492368B0FBF1F15E6826F03F0630
:1006D0000E435E606368934206D94FF496735943A4
:1006E0004FF47A73B1FBF3F12368491C1E6A26F0BC
:1006F0003F06314319626168914210D84900401E9B
:10070000B0FBF1F2521CC2F30B02042A01D2042006
:1007100022E0B0FBF1F0401CC0F30B001CE0A2682B
:10072000F2B301EBC10303EB0116431EB3FBF6F377
:100730005B1C43F480431B0549D092B301EBC1021B
:1007400002EB0111401EB0FBF1F0401CC0F30B00A6
:1007500040F4804040F400402168CA694CF6FF73C1
:100760009A431043C861D4E9071001432068026826
:1007700022F0C00211430160D4E903010143206863
:10078000826848F2FF339A4311438160D4E905013E
:1007900008432168CA6822F0FF021043C86001E0E4
:1007A0000EE016E02068016841F001010160256457
:1007B000202084F83D00256384F83E50002070BD61
:1007C00001EB4106431EB3FBF6F35B1CB3E70120CC
:1007D000C2E701EB4101401EB0FBF1F0401CC0F349
:1007E0000B00B7E7A086010080841E0000093D00D1
:1007F00040420F002DE9FF4F81B089460446FFF7C4
:10080000F9FD054694F83D004FF0010820287DD100
:100810001923012250492046009501F0F5FA0028DD
:1008200074D194F83C00012870D0012084F83C0079
:1008300020680168C90703D1016841F00101016026
:100840002068016821F400610160242084F83D00E3
:10085000002626644148E0624FF0011B20272068F3
:10086000016841F4807101600095002259462046DC
:10087000049B01F0C9FA50B120680068C00502D598
:100880004FF400702064032005B0BDE8F08F2168AC
:1008900009F0FE000861FFF7ADFD216805464869D3
:1008A0004969C0F34000C1F380214FF0A00A0FE076
:1008B000FFF7A0FD411B0498814200D808B984F8D5
:1008C0003DA0216848694969C0F34000C1F3802117
:1008D00094F83D20A02A02D008B90029E8D084F875
:1008E0003D7020684169C943890716D4016841F405
:1008F000007101602068416980691923012216494D
:100900002046009501F080FAB8B900E021E084F8B3
:100910003D7084F83C600020B6E7016841F4007146
:10092000016021686FF480604861192301220A493F
:100930002046009501F068FA08B10120A4E7039869
:1009400008F1010880458AD384F83D7084F83C6042
:10095000F3E7022098E70000020010000000FFFF0C
:1009600070477047704700002DE9F84F1F469046CA
:100970008A460446DDF82890FFF73CFD054694F8CA
:100980003D0020287FD119230122404920460095AF
:1009900001F03AFA002876D194F83C00012872D090
:1009A000012084F83C0020680168C90703D1016870
:1009B00041F0010101602068016821F400610160DB
:1009C000212084F83D00102084F83E000026266493
:1009D000C4F824806785608D20852D48E0622B4611
:1009E0004A465146204600F015FF90B920684169FB
:1009F0008069009036E02A464946204601F083FA95
:100A000050B1206C042804D12068016841F40071C1
:100A100001600120BDE8F88F606A216800780861F4
:100A2000606A401C6062618D491E6185218D491E8E
:100A300089B2218522685369DB435B070BD451B12E
:100A400000781061606A401C6062608D401E6085A5
:100A5000208D401E20852A464946204601F0AEF9E9
:100A60000028CED1208D0028C5D154F83D0B016857
:100A700041F400710160202004F81E09E6776677D2
:100A80000020C7E7FFE70220C4E7000002001000D3
:100A90000000FFFF7047704730B585B0002100911E
:100AA000019102910391294D0368294C12210322DF
:100AB0002848AB4224D1A36943F00803A361A3698A
:100AC000039203F0080304931302CDE90031694651
:100AD000FFF7A0FB2048416841F0E06141F00201CE
:100AE0004160E06940F40010E061E069002200F438
:100AF0000010049011461F2000F09AF81F2020E0FB
:100B0000164DAB421FD1A36943F00803A361A3694B
:100B1000039203F0080304934FF44063CDE90031DE
:100B20006946FFF777FBE06940F48000E061E06927
:100B3000002200F4800004901146212000F078F893
:100B4000212000F067F805B030BD000000540040DF
:100B500000100240000C014000000140005800401D
:100B6000704770470248816802781144816070477D
:100B700010000020074810B5016841F01001016025
:100B8000032000F075F8002000F006F800F024F8CB
:100B9000002010BD0020024070B50D4D04464FF4FA
:100BA0007A712878B1FBF0F00A490968B1FBF0F0DE
:100BB00000F0ECFA48B9102C07D200222146501E52
:100BC00000F036F800206C6070BD012070BD0000A0
:100BD000100000201C0000200C4808B5816941F07D
:100BE00001018161816901F001010091C16941F058
:100BF0008051C161C06900F0805000900448416894
:100C000021F0E06141F00071416008BD0010024038
:100C100000000140002809DB00F01F020121914083
:100C20004009800000F1E020C0F80011704700008A
:100C3000F0B40E4B1B680C46C3F30223C3F1070547
:100C4000042D00D90425191D072901D2002300E035
:100C5000DB1E012606FA05F1491E214099409E40FF
:100C6000761E16403143F0BC01F04BBC0CED00E0A9
:100C7000064900F0070208684FF6FF03184040EAF3
:100C80000220034A10430860704700000CED00E0AA
:100C90000000FA052DE9F0470F46050061D0434EEC
:100CA000306800F00700B84209D2306820F0070031
:100CB00038433060306800F00700B84251D12868EE
:100CC0003B4C810712D5400703D5606840F4E060D3
:100CD00060602878000703D5606840F46050606069
:100CE0006068A96820F0F000084360602878C007B9
:100CF00028D06868012810D02168022810D0890700
:100D000000292EDA616821F0030101436160FFF7D9
:100D100071FB804641F288390DE021688903EFE7D5
:100D20008901EDE7FFF766FBA0EB0801494502D911
:100D30000320BDE8F0876068696800F00C00B0EB44
:100D4000810FEFD1306800F00700B8420BD930684E
:100D500020F0070038433060306800F00700B842E8
:100D600001D00120E5E72878400705D56068E968EB
:100D700020F4E060084360602878000706D56068CA
:100D8000296920F4605040EAC100606000F038F842
:100D90006168084AC1F30311515CC8400649086004
:100DA00006480068FFF7F8FE0020C2E70020024076
:100DB00000100240603300081C00002014000020D6
:100DC0000448054900684968044AC1F30221515C9E
:100DD000C84070471C00002000100240703300081B
:100DE0000448054900684968044AC1F3C221515CBE
:100DF000C84070471C0000200010024070330008FB
:100E000012A185B00FC98DE80F0014A0144A006824
:100E100004905168134801F00C03042B10D0082BE8
:100E20000ED1C1F38343C9031DF803000AD55168ED
:100E300004AAC1F34041515C0A4A5043B0FBF1F0AF
:100E400005B0704708494843FAE70000020304056B
:100E5000060708090A0B0C0D0E0F10100102000006
:100E60000010024000127A0000093D002DE9F84F01
:100E7000040070D02078C04DC00749D06868C0F326
:100E80008100012807D06868C0F38100022809D1D9
:100E90006868C00306D52868800339D560680028D3
:100EA000E7D035E06068B0F5803F0BD010B1B0F509
:100EB000A02F11D0286820F480302860286820F402
:100EC000802002E0286840F480302860606890B19B
:100ED000FFF790FA06460AE0286840F48020286070
:100EE000F0E700BFFFF786FA801B642873D82868F4
:100EF0008003F7D50CE0FFF77DFA064605E000BF5A
:100F0000FFF778FA801B6428F0D828688003F7D4AC
:100F100020789A4E80074FF001094FF0000839D52C
:100F2000686810F00C0F07D06868C0F381000228D1
:100F300009D16868C00306D42868800714D52069E1
:100F4000012808D110E02069B0B1C6F80090FFF781
:100F500051FA074605E00AE1FFF74CFAC01B0228E8
:100F6000C4D828688007F7D52868616920F0F800A0
:100F700040EAC10028600DE0C6F80080FFF73AFAA9
:100F8000074604E0FFF736FAC01B022823D828687A
:100F90008007F7D4207800072CD57948A169D9B10A
:100FA000C0F80090FFF726FA074604E0FFF722FAA0
:100FB000C01B02280FD8686A8007F7D571484FF424
:100FC000FA510068B0FBF1F0009000BF0098411E9C
:100FD0000091FAD20EE080E0C0F80080FFF70AFA34
:100FE000074604E0FFF706FAC01B022875D8686AB6
:100FF0008007F7D42078400760D5E8690027C00053
:1010000008D4E86940F08050E861E869012700F001
:10101000805000905C480168C90513D4016883467C
:1010200041F480710160FFF7E5F9824606E000BFF8
:10103000FFF7E0F9A0EB0A0064284ED8DBF80000C7
:10104000C005F5D5E06801280AD008B1052813D0FD
:10105000286A20F001002862286A20F0040002E0DB
:10106000286A40F001002862E06841F2883B98B1AC
:10107000FFF7C0F982460BE0286A40F004002862BE
:10108000EEE700BFFFF7B6F9A0EB0A0159455AD8C1
:10109000286A8007F6D50CE0FFF7ACF9824605E038
:1010A000FFF7A8F9A0EB0A0159454CD8286A800738
:1010B000F6D41FB1E86920F08050E861E06988B398
:1010C0006968C1F38101022944D00228C6F8608012
:1010D00004D0FFF78FF9044638E034E0FFF78AF9CF
:1010E000074604E0FFF786F9C01B02282BD82868C2
:1010F0008001F7D4206AB0F5803F05D16868A16807
:1011000020F4003008436860D4E9080108436968A6
:1011100021F4741108436860C6F86090FFF76AF91B
:10112000044606E025E000BFFFF764F9001B022833
:1011300009D828688001F7D51BE000BFFFF75AF9EE
:10114000001B022802D90320BDE8F88F286880011F
:10115000F4D40EE00128F7D06868226A00F48031E8
:10116000914204D1616A00F47010884201D00120DC
:10117000EAE70020E8E700000010024000004242D9
:10118000800442421C0000200070004010B5401E48
:10119000B0F1807F01D3012010BD4FF0E0246061E9
:1011A0000F21601701F0ADF90020A0610720206138
:1011B000002010BD7047000070B50268044610683A
:1011C000D168536910F00F0F52D003F0010501F4FC
:1011D00090762E435FD0C20705D0CA0503D5E26BD7
:1011E00042F00102E263420705D5DA0703D0E26B61
:1011F00042F00202E263820705D5DA0703D0E26B10
:1012000042F00402E263020707D501F020022A43FC
:1012100003D0E26B42F00802E263E26B002A33D0B3
:10122000800604D5880602D5204601F0C0F8206863
:101230004069E16BC0F38010090700D428B3204651
:1012400001F0A7F82068416949061AD5416921F0E3
:1012500040014161606BA0B12D494163606BFEF7B5
:1012600089FF002810D0606B416BBDE870400847D3
:10127000830610D58B060ED52046BDE8704001F0E0
:1012800096B82046FFF796FF70BD2046FFF792FF05
:101290000020E06370BD03062BD50B0629D594F81A
:1012A00039002128F6D1A068B0F5805F01D120690E
:1012B000B0B1206A411C2162216800784860E08C4E
:1012C000401E0004000CE084E4D12068C16821F0D5
:1012D0008001C1602068C16841F04001C16070BDFB
:1012E000206A0088C0F308005060206A801C2062D9
:1012F000E5E74006F3D54806F1D5D168204621F050
:101300004001D160202184F8391000F076F870BDDA
:101310008323000870B5040004D094F83900002538
:1013200010B106E0012070BD84F83850204600F06E
:1013300023F8242084F839002068C16821F4005182
:10134000C160204601F07AF82068016921F49041DB
:1013500001612068416921F02A0141612068C1686A
:1013600041F40051C160E563202084F8390084F81D
:101370003A00002070BD000030B585B00024009414
:101380000194029403940068184988422BD11848AC
:10139000C16941F40031C161C16901F400310491B6
:1013A000816941F0040181618069124D00F00400FF
:1013B00004900420009002200190032003906946CD
:1013C0002846FEF727FF0820CDE900046946284695
:1013D0000294FEF71FFF002211462620FFF728FC8B
:1013E0002620FFF717FC05B030BD00000044004088
:1013F000001002400008014070477047FEE70000FF
:101400000148FEF7FFBF0000200000200148FEF762
:10141000F9BF00007400002038B5406A002190F840
:101420003D202B4B46F2A8141B68B3FBF4F3C3EB2F
:10143000C30303EB830300933BB15B1E009303687C
:101440001B689B0505D5009BF6E7036C43F0200362
:101450000364436B03B19962836B03B199620368C0
:101460001C6824F480641C604185436B03B159639C
:10147000836B03B1596303681C6824F001041C608A
:1014800090F83D402023602C0BD0282434EA02023F
:101490000FD080F83D3080F83E1000BFFFF7E5F830
:1014A00038BD80F83D3080F83E100164FEF7A8FF9B
:1014B00038BD0268136843F00103136002681368C3
:1014C00043F480631360016380F83D40E6E7000069
:1014D0001C00002070B5044690F83D0094F83E10C2
:1014E000102901D0402906D1222804D121680A6898
:1014F00022F400620A60282131EA00024FF0000560
:101500004FF0200626D021684968090505D46028D7
:1015100003D084F83D6084F83E502563206841681C
:10152000090537D5416821F400614160606B3D4990
:1015300090F82120012A11D04163606BFEF71AFE5A
:1015400038B32068016821F00101016084F83D6032
:10155000606B1CE0256384F83D10DFE7A06B4163FE
:10156000A06BFEF707FEA0B120684169C943490698
:1015700005D40069616A0870606A401C6062206876
:10158000016821F00101016084F83D60A06B416BAE
:10159000884710E094F83D10602910D04169C94394
:1015A000490605D40069616A0870606A401C60627F
:1015B0002046FFF75AF8206CC1071CD115E084F8CB
:1015C0003D6025644169C943490605D40069616AE3
:1015D0000870606A401C60622068016821F00101A7
:1015E00001602046FEF70CFFE5E7810703D44107C1
:1015F00001D4000704D52068416821F4E06141600E
:1016000094F83D00216C49070BD5282809D10648DC
:10161000E062256384F83D6084F83E502046FFF781
:101620009FF970BD191400080000FFFF01684A69A6
:10163000D24352050FD46FF480624A61002140F812
:10164000301F202242738173026942F0040202615A
:101650000173012070470020704710B5C26A438DA6
:101660000168042B06D0438D032B08D0438D022B39
:101670001DD012E04A6822F480624A600CE04B6898
:1016800023F480634B60042A06D0022A04D0016848
:101690000A6822F480620A6001680969426A11706E
:1016A000416A491C4162418D491E418510BD012A94
:1016B00030D0102A2ED0042A30D0022A2ED00A6828
:1016C00042F400720A6001680969426A1170416A55
:1016D000491C4162428D521E4285026812690A709D
:1016E000416A491C4162418D491E418501684A6831
:1016F00022F440724A60202180F83D1090F83E208C
:101700000021402A80F83E100CD012210163FFF71F
:1017100028F910BD0A6822F48062D3E70A6842F40F
:101720008062CFE70163FFF7B5F910BD38B590F8D7
:101730003D10222914D1418D032912D9016809696C
:10174000426A1170416A491C4162418D491E4185BE
:10175000418D032904D10068416821F48061416012
:1017600038BDC26A022AFBD0012901D00029F7D175
:10177000274946F2A81300220968B1FBF3F101EBF7
:101780008101009101682023009C641E009422D0F6
:101790000C68A405F8D40C6824F480640C6001681B
:1017A0004C6824F4E0644C6001680969446A217063
:1017B000416A491C4162418D491E418580F83D3096
:1017C00090F83E1080F83E2040291DD01221016380
:1017D000FFF7C7F838BD046C44F0200404644C687B
:1017E00024F4E0644C6001680969446A2170416A2C
:1017F000491C4162418D491E418580F83D3080F889
:101800003E20FEF732FF38BD0263FFF743F938BDD3
:101810001C000020F8B50446C06A1E460D46174657
:10182000082807D0012805D010F5803F02D0206B92
:10183000122804D12068016841F4807101601346C8
:1018400000224FF001112046009600F0DDFA40B171
:1018500020680068C00502D54FF4007020640320A2
:10186000F8BD2069B0F5804F0ED00620216800EA4F
:10187000D51040F0F000086133463A460B49204647
:1018800000F0F6FA78B902E005F0FE0000E0E8B2F8
:1018900021680861054933463A46891F204600F011
:1018A000E7FA0028DCD00120F8BD000008000100A4
:1018B00010B5C16A90F83D20212A0BD1428D52B15A
:1018C000416A026809781161416A491C4162418D8F
:1018D000491E418510BD00222023082910D020294F
:1018E0000ED011F5803F0BD001684C6824F4E06401
:1018F0004C601121016380F83E2080F83D300EE0FD
:1019000001684C6824F4E0644C6001680C6844F49D
:1019100000740C60026380F83D3080F83E20FFF7D1
:1019200021F810BD10B590F83D1090F83E30C26A15
:10193000048DB4B1212903D0402B11D122290FD11C
:10194000418DE1B390F83E10402942D0416A0268CF
:1019500009781161416A491C4162418D491E4185E6
:1019600010BD2129E8D120230021082A13D0202AE4
:1019700011D012F5803F0ED00268546824F4E06460
:1019800054601122026380F83E1080F83D3000BFA1
:10199000FEF7E8FF10BD0268546824F4E064546068
:1019A0000268146844F400741460016380F83D30E8
:1019B00090F83E2080F83E10402AE9D100E002E095
:1019C000FFF769F810BD0068416821F4806141604B
:1019D00010BDBDE8104000F0F3B8000078B590F8F5
:1019E0003E50C26A046B90F83D6000230168222ECD
:1019F00073D1066D0EB9402D6FD0056D1DB9056907
:101A0000B5F5404F1BD0458D95B3468D484D012E01
:101A100020D0448D022C4DD00C6844F480640C60BE
:101A200001684C68240579D5AA4273D0012A71D087
:101A3000082A6FD0102A6DD0202A6BD06EE04A6938
:101A40008A6900920A6842F480720A60016D491C3A
:101A5000016578BDAA4214D10A6822F480620A6046
:101A600001684A68120504D50A6822F4806217E00A
:101A7000FFE74A698A6900920A6842F400720A60C4
:101A800050E0082A10D0202A0ED0122C0AD0042AA6
:101A900003D0022A01D0102AE6D10A6842F48062FB
:101AA0000A603BE0012ADFD00A6822F480620A6003
:101AB0000168DEE7042A11D0022A0FD0102A0DD0C7
:101AC0000C6844F400640C6001684C698C690094F3
:101AD0000C6824F480640C6008E025E00C6844F491
:101AE00080640C6001684C698969009101684C68E8
:101AF000240517D5AA4207D0012A05D0082A03D009
:101B0000102A01D0202A0DD14A6842F480524A603E
:101B100008E0FFE74A6842F480524A6001684A6977
:101B200089690091036578BD48698869009078BD2E
:101B30000000FFFF90F83E10402910D00169B1F578
:101B4000804F19D0016DA9B3016D012910D1416CED
:101B50005FF0F10201F4407142EAD11106E0016D3B
:101B60000029416C05D0C9B241F001010068016152
:101B7000704701F0FE01F9E790F83D102129416C12
:101B800009D0C9B241F0010102681161416B29B16C
:101B9000896A49B902E001F0FE01F5E7816B00298D
:101BA000E6D0896A0029E3D00068416841F4006109
:101BB00041607047FFE7416CF02201F44071CBE7D0
:101BC00010B590F83D10026D22B3026D012A2FD09E
:101BD000026D022A1DD1222931D0428D0AB121295C
:101BE00033D0428D002A14D1212912D101684A68CC
:101BF00022F4E0624A6001680A6842F400720A60F6
:101C000000210163202280F83D2080F83E10FEF77D
:101C100042FF10BDC16C0129816C02D0C1F30721C4
:101C200008E00268C9B21161016D891C016510BD2F
:101C3000816CC9B202681161016D491CF6E7006848
:101C4000016841F48071016010BD416A0268097841
:101C50001161416A491C4162418D491E418510BD97
:101C6000F8B590F83D6004460068416821F4E061F1
:101C700041602068002541690091016841F001013F
:101C800001602068016821F480610160206841687A
:101C9000090520D5474F222E48D02A2E46D0616B09
:101CA000096849686185618D19B1216C41F00401B1
:101CB0002164416821F400614160606BFEF7A6FA7F
:101CC000012808D0606B4763606BFEF753FA10B1D0
:101CD000606B416B8847608D08B320684169C943D8
:101CE000490708D40069616A0870606A401C606234
:101CF000608D401E608520684169C943490608D44B
:101D00000069616A0870606A401C6062608D401EF4
:101D10006085608D18B1206C40F004002064206C58
:101D200000B32046BDE8F840FFF7D4BBA16B0968BB
:101D300049686185618D19B1216C41F0040121640C
:101D4000416821F400614160A06BFEF75FFA012851
:101D5000C1D0A06B4763A06BFEF70CFA0028BAD085
:101D6000A06BB6E72A2E06D12563282084F83D0013
:101D70002046FEF7F5FE94F83D10202028290DD0CE
:101D8000216B222901D0222E07D1256384F83D0042
:101D900084F83E502046FEF7E3FEF8BD0649E162B6
:101DA000256384F83D0084F83E502046FEF7D8FDB8
:101DB000F8BD0000191400080000FFFF70B51646BA
:101DC0000D4604460DE02046FFF730FC08B1012027
:101DD00070BD681C05D0FEF70DFB801BA84207D81C
:101DE00035B120684069C0434007ECD4002070BD85
:101DF000002044F8300F20216173A073216941F065
:101E0000200121612073E2E72DE9F0471E4690464C
:101E10000D460446C1F30747DDF8209008E0701C2A
:101E200006D0FEF7E7FAA0EB0900B0420FD876B172
:101E30002068012F18D0806925EA00000004000CFA
:101E400014D000214145EAD00020BDE8F0870020F1
:101E500044F8300F20216173A073216941F0200103
:101E6000216120730120F0E74069E5E70121E9E7FE
:101E70002DE9F0479A4691460E46044600254FF05C
:101E80002008C1F3074725E020684069C0434005AA
:101E900014D42068016841F40071016021686FF476
:101EA00080604861256384F83D8084F83E50206C52
:101EB00040F00400206484F83C501FE0B9F1FF3F7B
:101EC00008D0FEF797FAA0EB0A0149450CD8B9F102
:101ED000000F09D02068012F13D0806926EA000086
:101EE0000004000C0BD0CFE744F8305F84F80D807D
:101EF000A573206940F02000206125730120BDE812
:101F0000F0874069EAE770B516460D4604460DE0D5
:101F10002046FFF78BFB08B1012070BD681C05D07F
:101F2000FEF768FA801BA84207D835B120684069DF
:101F3000C0430006ECD4002070BD002044F8300FF0
:101F400020216173A073216941F020012161207378
:101F5000E2E700000D4808B5816941F02001816188
:101F6000816901F020010091816941F004018161E2
:101F7000816901F004010091816941F008018161EA
:101F8000806900F00800009008BD000000100240C9
:101F90000D4810B50B4901600C49416000214FF418
:101FA00080428160C0E9031241618161C1610162C7
:101FB000FEF75CFB002803D0BDE81040FEF7D8B860
:101FC00010BD00000054004020000020801A0600D0
:101FD0000D4810B50B4901600C49416000214FF4D8
:101FE00080428160C0E9031241618161C161016287
:101FF000FEF73CFB002803D0BDE81040FEF7B8B860
:1020000010BD00000058004074000020801A060037
:102010000C4810B50A4901604FF4E13141600021DC
:1020200081600C22C160C0E904128161C161FFF7C7
:1020300071F9002803D0BDE81040FEF799B810BD33
:1020400000440040C8000020FEE7704770470000D1
:1020500070B5802813D2402911D20B4B012401F016
:1020600007051E79AC40094BC90800EBC1100EB141
:1020700032B101E0012A03D0195CA143195470BDAB
:10208000195C2143FAE70000080000200801002045
:1020900028B1FF224FF480610248FEF743B80022C6
:1020A000F8E7000008010020014A108051807047C5
:1020B0000800002010B500F073FA44F620630122F6
:1020C00078215448FEF796FB08B1002010BD40F679
:1020D000C210401EFDD1AE220021782000F066FA29
:1020E00020220021782000F061FA102200217820BF
:1020F00000F05CFAB0220021782000F057FAC822E4
:102100000021782000F052FA00221146782000F0D9
:102110004DFA10220021782000F048FA40220021D8
:10212000782000F043FA81220021782000F03EFA66
:10213000FF220021782000F039FAA1220021782026
:1021400000F034FAA6220021782000F02FFAA8220D
:102150000021782000F02AFA3F220021782000F0A8
:1021600025FAA4220021782000F020FAD3220021B1
:10217000782000F01BFA00221146782000F016FAB1
:10218000D5220021782000F011FAF02200217820D9
:1021900000F00CFAD9220021782000F007FA222260
:1021A0000021782000F002FADA220021782000F0E5
:1021B000FDF912220021782000F0F8F9DB2200213D
:1021C000782000F0F3F920220021782000F0EEF9C9
:1021D0008D220021782000F0E9F9142200217820D6
:1021E00000F0E4F9AF220021782000F0DFF92E2280
:1021F0000021782000F0DAF90020FFF749FF00F015
:1022000071F8054800210180418001214171084693
:1022100010BD000020000020080000202DE9F0473C
:10222000814625480D46924601882A781144802926
:1022300005D28046408869780844402802D30020AF
:10224000BDE8F08700262AE0A9F1200101FB00602B
:102250006A68002432F810701DE000BF07FA04F02D
:10226000000409D5B8F80210B8F800003144204441
:1022700089B280B252460BE0BAF1000F1AD00022A8
:10228000B8F80210B8F800003144204489B280B296
:10229000FFF7DEFE641C2878A042DFD8761C687841
:1022A000B042D1D8B8F800102A7848461144A8F8AE
:1022B0000010C5E70122E3E70800002070B51546CD
:1022C0000E46044609E02A463146FFF7A7FF21786B
:1022D000884201D0C8B270BD641C20780028F2D1B9
:1022E000C0B270BD70B5104D002400BF04F1B00045
:1022F000C2B20021782000F059F90022114678205E
:1023000000F054F910220021782000F04FF905EB7D
:10231000C41280234021782000F058F9641CE4B2F4
:10232000082CE3D370BD0000080100207047FEF7C1
:1023300019BC30B58FB028216846FDF7FAFE14218C
:102340000AA8FDF7F6FE01210804CDE900100024DB
:10235000029402250491CDE907504FF4E010099052
:102360006846FEF783FD0F20CDE90A056802CDE936
:102370000C4002210AA80E94FEF78CFC0FB030BD71
:10238000704710B5406A0021C185C184FEF712FF75
:1023900010BD0168CA6822F49072CA6001684A6977
:1023A00022F001024A61202180F83A10704710B5EE
:1023B00090F83A10222901D0022010BD82684FF413
:1023C00080539A4201D1016921B1816A9A421BD09E
:1023D0004AB10AE00268816A5268C2F308020A80C0
:1023E000816A891C08E0026972B10268526802F0D1
:1023F0007F020A70816A491C8162C18D491E0904ED
:10240000090CC18503D016E002685268F1E7016843
:10241000CA6822F02002CA600168CA6822F4807289
:10242000CA6001684A6922F001024A61202180F8ED
:102430003A10FEF7E1FF002010BD000070B5044621
:1024400000680169E26821F440511143016121698A
:10245000A0680843616908432168CA6841F20C63B7
:102460009A430243CA6020684169A26921F440711D
:10247000114341611E492068884202D1FEF7B0FC39
:1024800001E0FEF79DFC00EBC00101EB001260686B
:1024900064218000B2FBF0F3B3FBF1F36FF0180698
:1024A0007343B2FBF0F5B2FBF0F605EB8305322384
:1024B00003EB0515B5FBF1F5B6FBF1F605F0F005FC
:1024C00005EB0615B2FBF0F6B2FBF0F0B0FBF1F055
:1024D0006FF01802504306EB800003EB0010B0FBD6
:1024E000F1F0216800F00F002844886070BD000002
:1024F000003801400148FEF75FBE0000C800002020
:10250000FEE70907090E002804DB00F1E02080F84F
:102510000014704700F00F0000F1E02080F8141D57
:10252000704702E008C8121F08C1002AFAD170479C
:102530007047002001E001C1121F002AFBD1704743
:10254000FEF718FBFFF7F5FEFFF704FDFFF720FD90
:10255000FFF73EFDFFF75CFDFFF7ACFD0A210846E3
:10256000FFF7A2FD0122084908A0FFF7A7FE1E21E0
:102570000A20FFF799FD0122034906A0FFF79EFEFE
:10258000FFF7B0FEFEE700000000002048454C4C7D
:102590004F000000574F524C442021210000000002
:1025A0000148401EFDD1704790D003001CB50223A6
:1025B0008DF804100A2100918DF80520014601AA2A
:1025C0000148FEF7D1F91CBD2000002070B5C2B053
:1025D00000248DF8041001A904E0155D0E19641C97
:1025E0007570E4B29C42F8D30A2100915B1C01464D
:1025F0009BB201AA0248FEF7B7F942B070BD0000D5
:10260000200000200000000000000000000000008A
:1026100000000000000000000000000000000000BA
:1026200000000000000000000000000C000C000C86
:10263000000C000C000C000C000C000C000C000C3A
:102640000000000C000C0000000000000000001B57
:10265000001B001B001B001B00000000000000000E
:10266000000000000000000000000000000000006A
:1026700000008019801980198019C07FC07F8019DF
:102680000033C07FC07F00330033003300330000CD
:10269000000000000000001E003F8075806500748F
:1026A000003C001E00078005806580658075003F46
:1026B000001E0004000400000000007000D840D894
:1026C000C0D880D900730006000C801BC036C066DD
:1026D000C046C00680030000000000000000001E8D
:1026E000003F003300330033001E000CC03CC066C6
:1026F000806380618063C03E801C00000000000099
:102700000000000C000C000C000C000C000000008D
:1027100000000000000000000000000000000000B9
:102720000000000080000001000300060006000415
:10273000000C000C000C000C000C000C0004000647
:102740000006000300018000002000100018000CAB
:10275000000C000400060006000600060006000645
:102760000004000C000C0018001000200000000CF9
:10277000002D003F001E003300000000000000009C
:102780000000000000000000000000000000000049
:10279000000000000000000C000C000C000CC0FF4A
:1027A000C0FF000C000C000C000C0000000000003A
:1027B0000000000000000000000000000000000019
:1027C0000000000000000000000000000000000CFD
:1027D000000C0004000400080000000000000000DD
:1027E00000000000000000000000001E001E0000AD
:1027F00000000000000000000000000000000000D9
:1028000000000000000000000000000000000000C8
:10281000000000000000000C000C000000000000A0
:102820000000000300030003000600060006000687
:10283000000C000C000C000C001800180018000020
:10284000000000000000001E003F00338061806136
:102850008061806D806D8061806180610033003FA8
:10286000001E00000000000000000006000E001E18
:1028700000360026000600060006000600060006D8
:102880000006000600060000000000000000001E18
:10289000003F807380618061800100030006000CAE
:1028A000001800300060807F807F00000000000082
:1028B0000000001C003E006300630003000E000ED9
:1028C00000038001800180618073003F001E0000D2
:1028D0000000000000000006000E000E001E001E9A
:1028E0000016003600360066807F807F00060006F6
:1028F00000060000000000000000007F007F006074
:1029000000600060006E007F806380018001806154
:102910008073003F001E0000000000000000001E49
:10292000003F803380610060006E007F80738061B3
:10293000806180618033003F001E000000000000C5
:102940000000807F807F80010003000300060006F6
:10295000000C000C000C0008001800180018000003
:10296000000000000000001E003F80638061806165
:102970000021001E003F8061806180618061003F16
:10298000001E0000000000000000001E003F007359
:102990008061806180618073803F801D80018061E3
:1029A0000073003F001E0000000000000000000057
:1029B000000000000000000C000C000000000000FF
:1029C000000000000000000C000C000000000000EF
:1029D000000000000000000000000000000C000CDF
:1029E00000000000000000000000000C000C0004CB
:1029F00000040008000000000000000080008003C8
:102A0000000E003800600038000E800380000000D7
:102A100000000000000000000000000000000000B6
:102A20000000807F807F00000000807F807F0000AA
:102A30000000000000000000000000000000000096
:102A40000000000000400070001C0007800100072B
:102A5000001C0070004000000000000000000000AA
:102A60000000001F803FC071C060C000C001800333
:102A70000007000E000C000C0000000C000C000011
:102A8000000000000000001E003F80318071806364
:102A9000806F806D806D806F806700600032003EC7
:102AA000001C0000000000000000000E000E001BD3
:102AB000001B001B001B80318031803F803F803134
:102AC000C060C060C0600000000000000000007C2A
:102AD000007E0063006300630063007E007E00638D
:102AE000806180618063007F007E00000000000044
:102AF0000000001E003F80318061006000600060C7
:102B000000600060006080618031003F001E0000B6
:102B1000000000000000007C007F00638063806193
:102B20008061806180618061806100630063007EFC
:102B3000007C0000000000000000807F807F0060BB
:102B4000006000600060007F007F00600060006047
:102B50000060807F807F0000000000000000807F18
:102B6000807F0060006000600060007F007F006088
:102B70000060006000600060006000000000000075
:102B80000000001E003F8031806100600060006036
:102B900080638063806180618031803F001E00001F
:102BA00000000000000080618061806180618061C0
:102BB0008061807F807F80618061806180618061D1
:102BC00080610000000000000000003F003F000C9A
:102BD000000C000C000C000C000C000C000C000C95
:102BE000000C003F003F00000000000000008001DA
:102BF00080018001800180018001800180018001CD
:102C0000806180618073003F001E000000000000B2
:102C10000000C0608061006300660066006C0078A0
:102C2000007C00660066006380618061C060000017
:102C300000000000000000600060006000600060B4
:102C40000060006000600060006000600060807FE5
:102C5000807F0000000000000000C071C071C07BD8
:102C6000C07AC06AC06AC06EC064C060C060C06024
:102C7000C060C060C0600000000000000000807103
:102C80008071807980798079806D806D806D8065BC
:102C900080678067806780638063000000000000B9
:102CA0000000001E003F0033806180618061806110
:102CB00080618061806180610033003F001E000000
:102CC000000000000000007E007F80638061806162
:102CD00080618063007F007E0060006000600060B3
:102CE00000600000000000000000001E003F0033F4
:102CF00080618061806180618061806180658067C2
:102D00000033803F401E0000000000000000007EF5
:102D1000007F8063806180618063007F007E006649
:102D20000063006380618061C060000000000000FB
:102D30000000000E001F8031803100300038001E7E
:102D400000078003806180618031003F001E000029
:102D5000000000000000C0FFC0FF000C000C000CD1
:102D6000000C000C000C000C000C000C000C000C03
:102D7000000C0000000000000000806180618061A4
:102D8000806180618061806180618061806180613B
:102D90008073003F001E0000000000000000C060C3
:102DA000C060C060803180318031001B001B001B7F
:102DB000001B000E000E000E0004000000000000CA
:102DC0000000C0C0C0C0C0C0C0C0C0C0C0CC804C2B
:102DD000804C805E805280528073806180610000F0
:102DE000000000000000C0C0806080610033003B34
:102DF000001E000C000C001E001F003B8071806153
:102E0000C0C00000000000000000C0C08061806100
:102E100000330033001E001E000C000C000C000CE0
:102E2000000C000C000C0000000000000000803FBF
:102E3000803F8001000300030006000C000C001816
:102E4000001800300060807F807F000000000000DC
:102E5000000F000F000C000C000C000C000C000C0C
:102E6000000C000C000C000C000C000C000C000C02
:102E7000000F000F0000001800180018000C000CD4
:102E8000000C000C0006000600060006000300030C
:102E90000003000000000000001E001E00060006E7
:102EA00000060006000600060006000600060006F2
:102EB0000006000600060006001E001E0000000CB2
:102EC000000C001E0012003300338061806100009E
:102ED00000000000000000000000000000000000F2
:102EE00000000000000000000000000000000000E2
:102EF00000000000000000000000000000000000D2
:102F0000E0FF0000000000380018000C0000000086
:102F100000000000000000000000000000000000B1
:102F200000000000000000000000000000000000A1
:102F30000000001F803F80618001801F803F806112
:102F40008063807FC0380000000000000000006047
:102F5000006000600060006E007F807380618061AF
:102F6000806180618073007F006E000000000000BF
:102F700000000000000000000000001E003F807301
:102F800080610060006080618073003F001E00006F
:102F90000000000000008001800180018001801D90
:102FA000803F807380618061806180618073803F39
:102FB000801D000000000000000000000000000074
:102FC0000000001E003F00738061807F807F0060F2
:102FD0008071003F001E0000000000000000C007DC
:102FE000C00F000C000C807F807F000C000C000CD8
:102FF000000C000C000C000C000C00000000000095
:103000000000000000000000801D803F8073806190
:103010008061806180618073803F801D800180635A
:10302000007F003E00000060006000600060006FF4
:10303000807F80718061806180618061806180615A
:103040008061000000000000000000060006000093
:103050000000003E003E00060006000600060006D6
:103060000006000600060000000000000006000642
:1030700000000000003E003E0006000600060006BC
:10308000000600060006000600060046007E003C22
:103090000000006000600060006080610063006606
:1030A000006C007C0076006300638061C0600000FB
:1030B000000000000000003E003E00060006000682
:1030C00000060006000600060006000600060006D0
:1030D00000060000000000000000000000000000EA
:1030E000000080DDC0FFC0CEC0CCC0CCC0CCC0CC06
:1030F000C0CCC0CCC0CC000000000000000000002C
:10310000000000000000006F807F8071806180619E
:10311000806180618061806180610000000000004A
:1031200000000000000000000000001E003F80734F
:1031300080618061806180618073003F001E0000BB
:10314000000000000000000000000000006E007F92
:10315000807380618061806180618073007F006E18
:1031600000600060006000600000000000000000DF
:10317000801D803F80738061806180618061807389
:10318000803F801D800180018001800100000000DF
:103190000000000000000067803F00390030003070
:1031A000003000300030003000300000000000002F
:1031B00000000000000000000000001E803F806151
:1031C0000060007F803F80018061007F001E000062
:1031D0000000000000000000000800180018007F38
:1031E000007F001800180018001800180018801F31
:1031F000800F000000000000000000000000000040
:103200000000806180618061806180618061806197
:103210008063807F803D000000000000000000000F
:10322000000000000000C060803180318031001B50
:10323000001B001B000E000E000600000000000036
:103240000000000000000000000080DD80DD80DD67
:10325000005500550055007700770022002200003D
:10326000000000000000000000000000000080617D
:1032700000330033001E000C000C001E003300332E
:10328000806100000000000000000000000000005D
:1032900080618061803100330033001B001B001B04
:1032A000000E000E000E001C007C007000000000EC
:1032B000000000000000C07FC07F80010003000606
:1032C000000C00180030C07FC07F0000000000002C
:1032D0008003800700060006000600060006000EB8
:1032E000001C001C000E000600060006000600067A
:1032F00080078003000600060006000600060006A0
:10330000000600060006000600060006000600068D
:1033100000060006000600060038003C000C000C09
:10332000000C000C000C000E00070007000E000C43
:10333000000C000C000C000C003C003800000000E9
:10334000000000000000000000008038807F00477F
:10335000000000000000000000000000000000006D
:103360000000000000000000010203040607080935
:103370000000000001020304983300080000002050
:103380002000000022250008B8330008200000209B
:10339000E8080000322500080B120000042600088F
:1033A000000000000000000001000000100000000C
:0833B000000000000024F400FD
:04000005080000ED02
:00000001FF
