:020000040800F2
:100000003005002001010008D3190008F715000889
:10001000D11900083F070008631B0008000000001A
:10002000000000000000000000000000D7190008D8
:100030004107000800000000D5190008D919000880
:100040001B0100081B0100081B0100081B01000820
:100050001B0100081B0100081B0100081B01000810
:100060001B0100081B0100081B0100081B01000800
:100070001B0100081B0100081B0100081B010008F0
:100080001B0100081B0100081B0100081B010008E0
:100090001B0100081B0100081B0100081B010008D0
:1000A000751A00081B0100081B0100081B0100084D
:1000B000811A00081B0100081B0100081B01000831
:1000C0001B0100081B0100081B0100081B010008A0
:1000D0001B0100081B0100081B0100081B01000890
:1000E0001B0100081B0100081B010008DFF80CD0F1
:1000F00000F0C2FA004800474D24000830050020F7
:100100000648804706480047FEE7FEE7FEE7FEE7B1
:10011000FEE7FEE7FEE7FEE7FEE7FEE72D1A000832
:10012000ED000008202A04DB203A21FA02F0002129
:10013000704721FA02F3D040C2F1200291400843F7
:1001400019467047D2B201E000F8012B491EFBD2DC
:1001500070470022F6E710B513460A4604461946D2
:10016000FFF7F0FF204610BD421E12F8013F002BA2
:10017000FBD111F8013B02F8013B002BF9D170478C
:100180002DE9FE4F804681EA0300C00F0C46009027
:1001900021F0004123F00045B8EB0200A94105D24F
:1001A0004046214690461C460B46024623F000403E
:1001B000104347D0270DC7F30A00C3F30A5102903A
:1001C000401A019040286BDAC3F3130040F4801BFF
:1001D0000098924620B10023D2EB030A63EB0B0B8D
:1001E00001985946C0F14002504600F028F90646F1
:1001F0000D4650465946019A00F030F910EB0800C0
:100200006141002487EA115284EAE7731A4340D01F
:10021000009A62B3019A012A4FEA075215DC001BCB
:1002200061EB02014FF0004202EA0752CDE90042C1
:10023000001C41F5801132462B4600F030F903B026
:10024000BDE8F08F40462146F9E7001B61EB020153
:10025000001C41F5801300185B412018A2F500171F
:1002600047EB030140EAD570B6196D4111E06D0806
:100270004FEA360645EAC0754FEA0752001B61EBAC
:100280000201001C41F5801149084FEA30000019B5
:10029000514132462B4603B0BDE8F04F00F0F0B8B4
:1002A0000098012240000023D0EB020263EBE073D0
:1002B000009821464FEAE074B8EB000061EB0401BE
:1002C000E9E783F000435BE781F0004158E72DE95F
:1002D000FE4F81EA030404F0004421F00041009441
:1002E0004FF0000B23F0004350EA01045ED052EAC5
:1002F00003045BD0C3F30A54C1F30A552C44A4F29F
:10030000F3340194A0FB0254C1F3130141F48011B2
:10031000C3F3130343F4801301FB024400FB034EB9
:10032000840A970A44EA815447EA8357A4FB076882
:1003300002958D0A05FB07854FEA932C04FB0C54AC
:100340002705029D4FEA065847EA1637B5EB080520
:100350006EEB070C870E920E47EA811742EA831272
:10036000A7FB0201B6EB0B0164EB00042B0D43EA83
:100370000C335E1844EB1C50DA465146E7FB020191
:10038000C5F313044FEA0B3343EA14534FEA043224
:10039000019C43EA0603A4F10C040294009CCDE9FD
:1003A00000B400F07CF803B0BDE8F08F00200146F7
:1003B000F9E70EB5C10F80EAE0700844CA070021D2
:1003C00040F233438DE80E000A460B4600F067F812
:1003D00003B000BD70B5C1F30A5201F0004500241E
:1003E000C1F3130140F2FF3341F480119A4201DA64
:1003F000002070BD40F233439A42A2F2334203DC44
:100400005242FFF78FFE00E090402C43F1D0404273
:1004100070BD30B50B46014600202022012409E0C2
:1004200021FA02F59D4205D303FA02F5491B04FAAD
:1004300002F52844151EA2F10102F1DC30BD202A8C
:1004400004DB203A00FA02F1002070479140C2F12B
:10045000200320FA03F3194390407047202A06DB5B
:10046000CB17203A41FA02F043EAE07306E041FA82
:1004700002F3D040C2F12002914008431946704770
:1004800010B5141E73F1000408DA401C41F100019C
:1004900092185B411A4301D120F0010010BD2DE9F3
:1004A000F04D92469B4611B1B1FA81F202E0B0FAEA
:1004B00080F220329046FFF7C2FF04460F4640EA22
:1004C0000A0041EA0B0153465A46084313D011462D
:1004D00053EA010019D0C8F140025046FFF722FE4E
:1004E00005460E46504659464246FFF7A8FF0843C8
:1004F00005D0012004E020463946BDE8F08D0020FB
:10050000054346EAE0762C4337430A986305E40A3C
:10051000A0EB08000022FD0A44EA47540A3002D545
:1005200000200146E9E7010510196941DDE90845A8
:1005300000196941BDE8F04DA2E72DE9F04D81EACF
:10054000030404F0004B21F0004514464FF0000A6C
:1005500023F0004150EA050220D054EA01021DD0E8
:10056000C5F30A570246C5F31303C1F31300C1F3E1
:100570000A5640F4801543F48013A7EB0608101BBD
:10058000D64608F2FD3873EB050002D308F10108E6
:1005900001E092185B41B8F1000F03DA0020014638
:1005A000BDE8F08D00204FF48011064684460EE031
:1005B000171B73EB050705D3121B63EB05030643FB
:1005C0004CEA010C49084FEA300092185B4150EAAE
:1005D0000107EDD152EA030012D082EA040083EA57
:1005E0000501084305D0101BAB4106D201220023B0
:1005F00006E000224FF0004302E06FF001025310CA
:100600001AEB06004CEB085110EB0A0041EB0B0112
:10061000BDE8F04DFFF734BF70B521F00043034350
:100620000CD0C1F30A550024D5EB040564EB040398
:10063000D617AD1AB34102DB0020014670BD201869
:1006400041EB025170BD000030B5041E71F1000491
:1006500004DB4FF00044404264EB0101141E73F1CF
:10066000000405DB1C464FF00043524263EB0403D9
:10067000994208BF904230BD064C074D06E0E06845
:1006800040F0010394E8070098471034AC42F6D3D9
:10069000FFF730FDB0310008D03100082DE9F04DF2
:1006A00000231A461B1A8A4103DB00200146BDE8DD
:1006B000F08DC1F30A52C1F3130141F480154FF0DC
:1006C000000BD10702D100186D41521E00270446CD
:1006D00040F2FF11384601EB620A3E468046024670
:1006E00000204FF48011FFF71DFDC2197141BB18A6
:1006F00046EB0100B4EB030C75EB000C04D3E41AD9
:1007000065EB000517460E46241908F101006D41FE
:1007100080463428E3DDF91946EB0600091BA841A1
:1007200003D24FF0FF32134601E0002213461BEBC9
:10073000070046EB0A51BDE8F04DFFF7A1BEFEE70A
:100740007047000070B5044600F008F90546601CCB
:1007500002D004480078044400F000F9401BA04295
:10076000FAD370BD300000202DE9F84FDFF8B891C2
:10077000002409F1040A0AF1040B23460F270BF1A8
:10078000040EC9E00125A5402A40AA427DD1674E4A
:10079000D1F804C0ACEB0608B44532D014DCBCF18F
:1007A000030F3AD009DCBCF1000F2AD0BCF1010FD5
:1007B0001CD0BCF1020F31D11DE0BCF1110F17D0DC
:1007C000BCF1120F2AD119E0B8F5881F19D006DC48
:1007D000B8F5803F15D0B8F5801F1FD111E0B8F5EE
:1007E000001F0ED0B8F5041F18D10AE0CB6815E041
:1007F000CB681B1D12E0CB6808330FE0CB680C33CD
:100800000CE08B682BB1012B4FF0080303D045613E
:1008100004E0042302E0056100E00023FF2A01D880
:10082000064601E000F104064FEA840501D9A5F16E
:100830002005D6F8008007FA05FC28EA0C0803FA20
:1008400005F548EA0508C6F800804D68ED0062D558
:10085000374DAE6946F00106AE61AD6924F003067E
:1008600005F001050095334D06EB050CDCF808504A
:10087000A607360F07FA06F825EA0805DFF8B8805C
:10088000404503D14FF0000817E044E0DFF8AC80AA
:10089000404502D14FF001080FE0DFF8A480404549
:1008A00002D14FF0020808E0DFF89880404502D1FD
:1008B0004FF0030801E04FF0040808FA06F848EA90
:1008C0000508CCF808804D68D9F80060ED034D4666
:1008D00001D5164300E096432E604D68DAF80060BB
:1008E000AD03554601D5164300E096432E604D6892
:1008F000DBF80060ED025D4601D5164300E096434B
:100900002E604D68DEF80060AD02754601D51643D5
:1009100000E096432E60641C0D682A46E5407FF493
:1009200031AFBDE8F88F0000000401400000111055
:10093000001002400000014000080140000C01408E
:1009400000100140001401408068084000D00120E0
:1009500070470AB1016170470904FBE701488068EC
:10096000704700003000002070B504001BD094F8E0
:100970003D00002520B984F83C50204600F044F9A1
:10098000242084F83D002068016821F00101016005
:1009900000F096FA4D4A6168914201D84C4900E056
:1009A0004C49884201D2012070BD4B492368B0FBFD
:1009B000F1F15E6826F03F060E435E606368934285
:1009C00006D94FF4967359434FF47A73B1FBF3F1A0
:1009D0002368491C1E6A26F03F063143196261688C
:1009E000914210D84900401EB0FBF1F2521CC2F3F4
:1009F0000B02042A01D2042022E0B0FBF1F0401CDB
:100A0000C0F30B001CE0A368F3B301EBC10202EBDF
:100A10000116421EB2FBF6F2521C42F4804212054D
:100A200049D093B301EBC10202EB0111401EB0FBB0
:100A3000F1F0401CC0F30B0040F4804040F4004053
:100A40002168CA694CF6FF739A431043C861D4E920
:100A50000701084321680A6822F0C00210430860B9
:100A6000D4E9030101432068826848F2FF339A43C6
:100A700011438160D4E9050108432168CA6822F066
:100A8000FF021043C86001E00EE016E02068016834
:100A900041F0010101602564202084F83D002563B8
:100AA00084F83E50002070BD01EB4106421EB2FBAF
:100AB000F6F2521CB3E70120C2E701EB4101401EF0
:100AC000B0FBF1F0401CC0F30B00B7E7A0860100BB
:100AD00080841E0000093D0040420F002DE9F84FC0
:100AE0001F4690468A460446DDF82890FFF736FFF9
:100AF000054694F83D0020287FD119230122404962
:100B00002046009500F0FAFD002876D194F83C00CC
:100B1000012872D0012084F83C0020680168C907D0
:100B200003D1016841F0010101602068016821F4EE
:100B300000610160212084F83D00102084F83E000F
:100B400000262664C4F824806785608D20852D48A2
:100B5000E0622B464A465146204600F065FD90B9BA
:100B6000206841698069009036E02A46494620465F
:100B700000F043FE50B1206C042804D120680168C5
:100B800041F4007101600120BDE8F88F606A2168BE
:100B900000780861606A401C6062618D491E618551
:100BA000218D491E89B2218522685369DB435B0789
:100BB0000BD451B100781061606A401C6062608D96
:100BC000401E6085208D401E20852A4649462046CD
:100BD00000F06EFD0028CED1208D0028C5D154F83C
:100BE0003D0B016841F400710160202004F81E09EA
:100BF000E67766770020C7E7FFE70220C4E700003A
:100C0000020010000000FFFF10B586B00021009127
:100C100001910291039100680F4988421AD10F4C4B
:100C2000A06940F00800A061A069694600F00800D2
:100C30000490C020009012200190032003900848E7
:100C4000FFF792FDE06940F40010E061E06900F414
:100C50000010049006B010BD005400400010024087
:100C6000000C01400248816802781144816070479D
:100C700030000020074810B5016841F01001016004
:100C8000032000F075F8002000F006F800F024F8CA
:100C9000002010BD0020024070B50D4D04464FF4F9
:100CA0007A712878B1FBF0F00A490968B1FBF0F0DD
:100CB00000F0DCFA48B9102C07D200222146501E61
:100CC00000F036F800206C6070BD012070BD00009F
:100CD000300000203C0000200C4808B5816941F03C
:100CE00001018161816901F001010091C16941F057
:100CF0008051C161C06900F0805000900448416893
:100D000021F0E06141F00071416008BD0010024037
:100D100000000140002809DB00F01F020121914082
:100D20004009800000F1E020C0F800117047000089
:100D3000F0B40E4B1B680C46C3F30223C3F1070546
:100D4000042D00D90425191D072901D2002300E034
:100D5000DB1E012606FA05F1491E214099409E40FE
:100D6000761E16403143F0BC00F024BF0CED00E0CD
:100D7000064900F0070208684FF6FF03184040EAF2
:100D80000220034A10430860704700000CED00E0A9
:100D90000000FA052DE9F0470F46050061D0434EEB
:100DA000306800F00700B84209D2306820F0070030
:100DB00038433060306800F00700B84251D12868ED
:100DC0003B4C810712D5400703D5606840F4E060D2
:100DD00060602878000703D5606840F46050606068
:100DE0006068A96820F0F000084360602878C007B8
:100DF00028D06868012810D02168022810D08907FF
:100E000000292EDA616821F0030101436160FFF7D8
:100E1000A5FD804641F288390DE021688903EFE79E
:100E20008901EDE7FFF79AFDA0EB0801494502D9DA
:100E30000320BDE8F0876068696800F00C00B0EB43
:100E4000810FEFD1306800F00700B8420BD930684D
:100E500020F0070038433060306800F00700B842E7
:100E600001D00120E5E72878400705D56068E968EA
:100E700020F4E060084360602878000706D56068C9
:100E8000296920F4605040EAC100606000F028F851
:100E90006168084AC1F30311515CC8400649086003
:100EA00006480068FFF7F8FE0020C2E70020024075
:100EB00000100240043100083C00002034000020F3
:100EC0000448054900684968044AC1F30221515C9D
:100ED000C84070473C000020001002401431000858
:100EE00012A185B00FC98DE80F0014A0144A006844
:100EF00004905168134801F00C03042B10D0082B08
:100F00000ED1C1F38343C9031DF803000AD551680C
:100F100004AAC1F34041515C0A4A5043B0FBF1F0CE
:100F200005B0704708494843FAE70000020304058A
:100F3000060708090A0B0C0D0E0F10100102000025
:100F40000010024000127A0000093D002DE9F84F20
:100F5000040070D02078C04DC00749D06868C0F345
:100F60008100012807D06868C0F38100022809D1F8
:100F70006868C00306D52868800339D560680028F2
:100F8000E7D035E06068B0F5803F0BD010B1B0F528
:100F9000A02F11D0286820F480302860286820F421
:100FA000802002E0286840F480302860606890B1BA
:100FB000FFF7D4FC06460AE0286840F48020286049
:100FC000F0E700BFFFF7CAFC801B642873D82868CD
:100FD0008003F7D50CE0FFF7C1FC064605E000BF33
:100FE000FFF7BCFC801B6428F0D828688003F7D486
:100FF00020789A4E80074FF001094FF0000839D54C
:10100000686810F00C0F07D06868C0F381000228F0
:1010100009D16868C00306D42868800714D5206900
:10102000012808D110E02069B0B1C6F80090FFF7A0
:1010300095FC074605E00AE1FFF790FCC01B02287B
:10104000C4D828688007F7D52868616920F0F800BF
:1010500040EAC10028600DE0C6F80080FFF77EFC82
:10106000074604E0FFF77AFCC01B022823D8286853
:101070008007F7D4207800072CD57948A169D9B129
:10108000C0F80090FFF76AFC074604E0FFF766FC33
:10109000C01B02280FD8686A8007F7D571484FF443
:1010A000FA510068B0FBF1F0009000BF0098411EBB
:1010B0000091FAD20EE080E0C0F80080FFF74EFC0D
:1010C000074604E0FFF74AFCC01B022875D8686A8F
:1010D0008007F7D42078400760D5E8690027C00072
:1010E00008D4E86940F08050E861E869012700F021
:1010F000805000905C480168C90513D4016883469C
:1011000041F480710160FFF729FC824606E000BFD0
:10111000FFF724FCA0EB0A0064284ED8DBF800009F
:10112000C005F5D5E06801280AD008B1052813D01C
:10113000286A20F001002862286A20F0040002E0FA
:10114000286A40F001002862E06841F2883B98B1CB
:10115000FFF704FC82460BE0286A40F00400286296
:10116000EEE700BFFFF7FAFBA0EB0A0159455AD89A
:10117000286A8007F6D50CE0FFF7F0FB824605E011
:10118000FFF7ECFBA0EB0A0159454CD8286A800711
:10119000F6D41FB1E86920F08050E861E06988B3B7
:1011A0006968C1F38101022944D00228C6F8608031
:1011B00004D0FFF7D3FB044638E034E0FFF7CEFB62
:1011C000074604E0FFF7CAFBC01B02282BD828689B
:1011D0008001F7D4206AB0F5803F05D16868A16826
:1011E00020F4003008436860D4E9080108436968C6
:1011F00021F4741108436860C6F86090FFF7AEFBF5
:10120000044606E025E000BFFFF7A8FB001B02280C
:1012100009D828688001F7D51BE000BFFFF79EFBC7
:10122000001B022802D90320BDE8F88F286880013E
:10123000F4D40EE00128F7D06868226A00F4803107
:10124000914204D1616A00F47010884201D00120FB
:10125000EAE70020E8E700000010024000004242F8
:10126000800442423C0000200070004010B5401E47
:10127000B0F1807F01D3012010BD4FF0E024606108
:101280000F21601700F096FC0020A061072020616C
:10129000002010BD7047704770B590F83C20012ABF
:1012A00019D0012400F83C4F0222427050F83C3C17
:1012B0005A689D6822F070060A684968324325F032
:1012C000800529435A6050F83C2C916044700021FD
:1012D0000170084670BD022070BD10B5040003D037
:1012E00094F83D0010B107E0012010BD002084F803
:1012F0003C00204600F00CF8022084F83D00211D3F
:10130000206800F0C3FB012084F83D00002010BDE0
:1013100008B5154A0168154891420ED1816941F41A
:10132000006181618069002200F400600090114634
:101330001820FFF7FDFC182010E0B1F1804F11D10B
:10134000C16941F00101C161C069002200F00100E2
:10135000009011461C20FFF7EBFC1C20BDE8084064
:10136000FFF7D8BC08BD0000002C0140001002406F
:101370000168CA6842F00102CA600068816801F031
:101380000701062903D0016841F001010160002036
:10139000704770B5044690F83C00012817D001252D
:1013A00084F83C50022084F83D002068826822F0D6
:1013B000770222F47F4282600868502830D00DDC2A
:1013C00020284DD005DC98B310283BD148E00220FE
:1013D00070BD302844D0402834D139E0602828D06E
:1013E000702806D0B0F5805F2CD0B0F5005F29D111
:1013F0000AE0CB68D1E90121206800F07DFB20687C
:10140000816841F0770109E0CB68D1E901212068CA
:1014100000F072FB2068816841F48041816011E036
:10142000CA684968206800F079FB5021206807E00D
:1014300016E0CA684968206800F081FB60212068D6
:1014400000F064FB84F83D50002084F83C0070BD3F
:10145000CA684968206800F061FB40212068EFE716
:10146000226801461046EBE7704770B504460068F5
:1014700001694FF00005C943890715D4C168C94304
:10148000890711D4E91E0161012020772068806955
:101490008007204602D0FFF7E7FF04E000F098F84D
:1014A000204600F096F8257720680169C94349076E
:1014B00017D4C168C943490713D46FF0040101610F
:1014C000022020772068806910F4407F204602D0F7
:1014D000FFF7CAFF04E000F07BF8204600F079F83F
:1014E000257720680169C943090716D4C168C94333
:1014F000090712D46FF008010161042020772068E9
:10150000C0698007204602D0FFF7AEFF04E000F07C
:101510005FF8204600F05DF8257720680169C9432F
:10152000C90617D4C168C943C90613D46FF01001A6
:101530000161082020772068C06910F4407F2046B0
:1015400002D0FFF791FF04E000F042F8204600F0DF
:1015500040F8257720680169C943C90708D1C168E7
:10156000C943C90704D1891E0161204600F032F841
:1015700020680169C943090609D4C168C94309063D
:1015800005D46FF0800101612046FFF783FE2068DB
:101590000169C943490609D4C168C943490605D44C
:1015A0006FF040010161204600F024F820680169D5
:1015B000C94389060BD4C168C943890607D46FF0B3
:1015C000200101612046BDE87040FFF764BE70BD98
:1015D00070477047054A9168002906D0044B00689F
:1015E0001B68984201D1491E91607047000000209D
:1015F000D80000207047FEE701684A69D2435205CF
:101600000FD46FF480624A61002140F8301F20221D
:1016100042738173026942F0040202610173012086
:101620007047002070470000F8B50446C06A1E46A7
:101630000D461746082807D0012805D010F5803F31
:1016400002D0206B122804D12068016841F4807117
:101650000160134600224FF001112046009600F071
:101660004DF808BB2069B0F5804F0ED006202168E8
:1016700000EAD51040F0F000086133463A460B49C5
:10168000204600F06FF878B902E005F0FE0000E0B7
:10169000E8B221680861054933463A46891F204669
:1016A00000F060F8002800D00120F8BD080001001B
:1016B00070B516460D4604460DE02046FFF79CFF28
:1016C00008B1012070BD681C05D0FFF747F9801BE9
:1016D000A84207D835B120684069C0434007ECD420
:1016E000002070BD002044F8300F20216173A073EA
:1016F000216941F0200121612073E2E72DE9F047E3
:101700001E4690460D460446C1F30747DDF820907B
:1017100008E0701C06D0FFF721F9A0EB0900B042E9
:101720000FD876B12068012F18D0806925EA000013
:101730000004000C14D000214145EAD00020BDE88F
:10174000F087002044F8300F20216173A0732169D5
:1017500041F02001216120730120F0E74069E5E7B5
:101760000121E9E72DE9F0479A4691460E460446E5
:1017700000254FF02008C1F3074725E020684069A5
:10178000C043400514D42068016841F40071016031
:1017900021686FF480604861256384F83D8084F897
:1017A0003E50206C40F00400206484F83C501FE060
:1017B000B9F1FF3F08D0FFF7D1F8A0EB0A01494586
:1017C0000CD8B9F1000F09D02068012F13D080691F
:1017D00026EA00000004000C0BD0CFE744F8305F8D
:1017E00084F80D80A573206940F0200020612573E6
:1017F0000120BDE8F0874069EAE770B516460D465E
:1018000004460DE02046FFF7F7FE08B1012070BD49
:10181000681C05D0FFF7A2F8801BA84207D835B195
:1018200020684069C0430006ECD4002070BD002051
:1018300044F8300F20216173A073216941F0200129
:1018400021612073E2E700002DE9F04385B0002418
:1018500030480094019402940394816941F010018E
:101860008161816901F010010491816941F02001D9
:101870008161816901F020010491816941F00401D5
:101880008161816901F004010491816941F00801DD
:1018900081618069204F00F008004FF400550490EA
:1018A000002229463846FFF754F8DFF870800122FD
:1018B0000F214046FFF74DF8DFF864900122102118
:1018C0004846FFF746F80095022601250396CDE924
:1018D000015469463846FEF747FF0F20CDE9000561
:1018E000CDE9024669464046FEF73EFFF0208DE80E
:1018F000510069464046FEF737FF1020CDE900054C
:101900000320CDE9024069464846FEF72DFF05B0A9
:10191000BDE8F083001002400010014000080140C3
:10192000000C014010B586B00024134800940194C7
:101930000294039404940F490594016048F6A04171
:10194000C0E9011440F2CF71C0E90314446184611D
:10195000FFF7C3FC4FF48050009069460648FFF73C
:1019600018FD049404A904480594FFF795FC06B0FB
:1019700010BD0000002C01409800002010B586B07A
:1019800000241248009401940294039404944FF0AC
:1019900080410594016048F6A041C0E9011440F27D
:1019A000CF71C0E903148461FFF797FC4FF48050B6
:1019B000009069460548FFF7ECFC049404A903482D
:1019C0000594FFF769FC06B010BD0000D8000020A8
:1019D000FEE7704770477047FFF744B930B58FB0E6
:1019E00028216846FEF7B5FB14210AA8FEF7B1FBD3
:1019F00001210804CDE9001000240294022504917D
:101A0000CDE907504FF4E01009906846FFF79EFAC1
:101A10000F20CDE90A056802CDE90C4002210AA891
:101A20000E94FFF7B7F90FB030BD00000D48016804
:101A300041F00101016041680B4A114041600168B9
:101A40000A4A11400160016821F480210160416867
:101A500021F4FE0141604FF41F0181600449C0037D
:101A600008607047001002400000FFF8FFFFF6FE1C
:101A700008ED00E00148FFF7F8BC000098000020E6
:101A80000148FFF7F2BC0000D8000020F0B5026862
:101A9000164B174C174D4FF08047984205D0B8426F
:101AA00003D0A04201D0A84203D122F070064A68B8
:101AB0003243984205D0B84203D0A04201D0A84298
:101AC00003D122F44074CA6822434C6922F0800298
:101AD000224302608A68C2620A688262984201D127
:101AE0000969016301214161F0BD0000002C014042
:101AF000000400400008004010B5846842EA032258
:101B000024F47F440A432243826010BD826822F09D
:101B100070020A4342F007018160704710B5036A02
:101B2000046A24F001040462846924F0F00444EAA5
:101B3000021423F00A020A438461026210BD10B548
:101B4000036A23F0100303628369046A23F4704379
:101B500043EA023224F0A00343EA011182610162E8
:101B600010BDFEE70FB4084B10B504A902AA0398F4
:101B700000F0BCF8044602A9002000F061F92046FC
:101B800010BC5DF814FB0000411E0008490050EA3B
:101B9000C12018BF04204A0D18BF40F0010040F2D8
:101BA000FF72B2EB515F08BF40F00200012808BF8E
:101BB000052070470907090E002804DB00F1E0202A
:101BC00080F80014704700F00F0000F1E02080F86A
:101BD000141D70472DE9F0414F1E00EBC70104466C
:101BE000D1E9000115461E4637F006020DD02A46FF
:101BF0003346FEF76CFB7F1E04EBC703D3E90023DB
:101C0000FEF7BEFA37F00602F1D1022F25D0042FDD
:101C100013D0062F18BFBDE8F0812A463346FEF7E1
:101C200056FBD4E90A23FEF7ABFA2A463346FEF701
:101C30004EFBD4E90823FEF7A3FA2A463346FEF703
:101C400046FBD4E90623FEF79BFA2A463346FEF705
:101C50003EFBD4E90423FEF793FA2A463346FEF707
:101C600036FBD4E90223FEF78BFA2A463346FEF709
:101C70002EFBD4E90023BDE8F041FEF781BA000055
:101C80000022134610460149FEF757BC0000F03F02
:101C9000FEF776BA0022134610461146FEF74DBCF9
:101CA00040F2013200204FF0E041FEF7B5BC0000E9
:101CB000024A00201107FEF7AFBC000001FDFFFF44
:101CC00002E008C8121F08C1002AFAD17047704705
:101CD000002001E001C1121F002AFBD17047000063
:101CE0000149086070470000400000202DE9FF4FC7
:101CF00089B09B460446002506E025280BD05A46AD
:101D00000B999047641C6D1C20780028F5D10DB00C
:101D10002846BDE8F08F0027B8460122474900E079
:101D2000074314F8013F203B02FA03F00842F7D1C1
:101D300020782E2819D114F8010F47F004072A281B
:101D40000ED06FF02F022078A0F1300109290CD8B5
:101D500008EB880102EB410100EB0108641CF2E78B
:101D60000A98641C50F8048B0A9020780028CED082
:101D7000642808D0692806D075281ED05A460B99C9
:101D800090476D1C58E00A994FF00A0901C90A9161
:101D9000002802DA40422D2102E0390504D52B212A
:101DA0008DF82010012103E0F90704D02021F7E786
:101DB0008A4608AE0DE00021FAE70A994FF00A09B9
:101DC00001C90A91F7E74946FEF723FB303106F8CF
:101DD000011D0028F7D1ADEB060000F120097807BE
:101DE00001D44FF00108C84502DDA8EB090000E06E
:101DF00000208046002706E008A85A46C05D0B99DF
:101E000090476D1C7F1C5745F6DB04E030205A4696
:101E10000B9990476D1CB8F10001A8F10108F5DCA1
:101E200005E016F8010B5A460B9990476D1CB9F165
:101E30000001A9F10109F4DC641C65E7092801002F
:101E40000A68531C0B6010707047000010B5044CFA
:101E50006069012803D100F073FA0020606110BDB1
:101E600000000020084A906901280BD100209060F2
:101E70005060064B0146506243F82100491C072977
:101E8000FADB90617047000000000020180100207C
:101E90002DE9F041174C206A801E0B25206223E0BB
:101EA000A5F10B00FEF785FA02460B460020124909
:101EB00000F016FC06460F46206A1049401B51F8F8
:101EC0002000FEF776FA32463B46FEF700FA064659
:101ED0000F46606AFEF76DFA32463B46FEF750F950
:101EE000FEF778FA6D1C6062206A8542D8DD606A70
:101EF000BDE8F0810000002000002440180100200F
:101F00002DE9F041FF4C05464FF000082746202000
:101F1000C4F81C80FC4E3870012211463046FEF792
:101F200018FD10213046FEF70FFD01287ED020213C
:101F30003046FEF709FD012879D040213046FEF7F2
:101F400003FD012874D080213046FEF7FDFC0128F6
:101F50006FD0002201213046FEF7FBFC0122022156
:101F60003046FEF7F6FC10213046FEF7EDFC012866
:101F70007ED020213046FEF7E7FC012879D04021B1
:101F80003046FEF7E1FC012874D080213046FEF790
:101F9000DBFC01286FD0002202213046FEF7D9FC7D
:101FA0006420FEF7CFFB012204213046FEF7D1FC6E
:101FB00010213046FEF7C8FC012876D0202130469B
:101FC000FEF7C2FC012871D040213046FEF7BCFC70
:101FD00001286CD080213046FEF7B6FC012867D07E
:101FE000002204213046FEF7B4FC6420FEF7AAFB71
:101FF000012208213046FEF7ACFC10213046FEF7E6
:10200000A3FC01287DD020213046FEF79DFC01284D
:1020100078D040213046FEF797FC012873D080210C
:102020003046FEF791FC01286ED003E016E030E068
:1020300049E05EE0002208213046FEF78AFC642079
:10204000FEF780FBBDE8F081401CE06110213046C6
:10205000FEF77AFC012877D1FEF774FBE069A8420D
:10206000F2DB3120387010213046FEF76DFC03E0C2
:1020700050E074E089E09EE00128F4D05EE1401C6D
:10208000E06120213046FEF75FFC0128E3D1FEF736
:1020900059FBE069A842F2DB32203870202130463B
:1020A000FEF752FC0128F9D048E19AE0AFE0C4E025
:1020B000D9E0401CE06140213046FEF745FC012894
:1020C000C9D1FEF73FFBE069A842F2DB332038704C
:1020D00040213046FEF738FC0128F9D02EE1401CA3
:1020E000E06180213046FEF72FFC0128B3D1FEF7D6
:1020F00029FBE069A842F2DB41203870802130469C
:1021000003E0C7E0DCE0F1E00DE1FEF71DFC012893
:10211000F4D013E14046C4F81C800AE0401CE061A2
:1021200010213046FEF710FC012894D1FEF70AFB7F
:10213000E069A842F2DB3420387010213046FEF707
:1021400003FC0128F9D0F9E099E0401CE06120216E
:102150003046FEF7F9FB012898D1FEF7F3FAE06963
:10216000A842F2DB3520387020213046FEF7ECFB28
:102170000128F9D0E2E0401CE06140213046FEF742
:10218000E3FB01287BD1FEF7DDFAE069A842F2DB30
:102190003620387040213046FEF7D6FB0128F9D0B2
:1021A000CCE0401CE06180213046FEF7CDFB0128E9
:1021B00065D1FEF7C7FAE069A842F2DB4220387029
:1021C00080213046FEF7C0FB0128F9D0B6E0401C64
:1021D000E06110213046FEF7B7FB01284FD1FEF732
:1021E000B1FAE069A842F2DB37203870102130469E
:1021F000FEF7AAFB0128F9D0A0E0401CE0612021F5
:102200003046FEF7A1FB012839D1FEF79BFAE069C1
:10221000A842F2DB3820387020213046FEF794FBCC
:102220000128F9D08AE0401CE06140213046FEF7E9
:102230008BFB012872D1FEF785FAE069A842F2DB38
:102240003920387040213046FEF77EFB0128F9D056
:1022500074E0401CE06180213046FEF775FB0128E8
:102260005CD1FEF76FFAE069A842F2DB43203870D8
:1022700080213046FEF768FB0128F9D05EE04DE092
:10228000401CE06110213046FEF75EFB012845D17D
:10229000FEF758FAE069A842F2DB2A2038701021D4
:1022A0003046FEF751FB0128F9D047E0401CE061C1
:1022B00020213046FEF748FB01282FD1FEF742FAD5
:1022C000E069A842F2DB3020387020213046FEF76A
:1022D0003BFB0128F9D031E0401CE0614021304651
:1022E000FEF732FB012819D1FEF72CFAE069A8426B
:1022F000F2DB2320387040213046FEF725FB012811
:10230000F9D01BE00000002000080140401CE06103
:1023100080213046FEF718FB012801D0002091E60D
:102320000120FEF70FFAE069A842EFDB4420387085
:1023300080213046FEF708FB0128F9D0012081E614
:10234000012000F039B8012805D04031C8B240F072
:10235000800000F031B88031C8B2FAE710B5332000
:1023600000F02AF8322000F027F83220FEF7EAF9D0
:10237000282000F021F83220FEF7E4F9012000F0D7
:102380001BF83220FEF7DEF9062000F015F83220A7
:10239000FEF7D8F90C2000F00FF83220FEF7D2F942
:1023A000022000F009F83220FEF7CCF9BDE8104019
:1023B000802000F001B800001CB500F0F00141F0F1
:1023C0000C028DF8042041F0080100018DF8051081
:1023D00040F00C018DF8061040F008008DF8070061
:1023E00064200090042301AA4E210248FEF776FBE8
:1023F0001CBD0000440000201CB500F0F00141F0BD
:102400000D028DF8042041F0090100018DF805103E
:1024100040F00D018DF8061040F009008DF807001E
:1024200064200090042301AA4E210248FEF756FBC7
:102430001CBD00004400002010B5044602E0641CEE
:10244000FFF7DAFF20780028F9D110BDFEF712FC63
:10245000FFF7C4FAFFF7F8F98B488A4900250160B5
:102460008A49C0E901154FF48041C0E90351456133
:102470008561C5610562FEF777FAFFF753FAFFF74A
:102480007DFA81489430FEF773FF4FF47A7B58460B
:10249000FEF758F9FFF762FF7D4CDFF8EC910B2750
:1024A000DFF8F0A109F1D4094FF0010826462762B0
:1024B000FFF7CCFC00210120FFF745FF76A0FFF7D6
:1024C000BBFF0520FEF73EF9A06820B301221021D2
:1024D0005046FEF73EFA00210220FFF734FF71A0BC
:1024E000FFF7AAFF6A4871A12830A268FFF73AFBFC
:1024F00067486FA12830FDF737FE0A210120FFF75A
:1025000022FF63482830FFF797FF0A20FFF7F8FC07
:1025100001280DD059E000210220FFF714FF67A029
:10252000FFF78AFF002210215046FEF712FAD9E782
:102530003078232849D1FFF703FFC4F81080C4F88E
:10254000148040F6B830C4F818803CE0FFF77EFCF9
:10255000FFF788FC00210120FFF7F5FE5AA0FFF7E6
:102560006BFF00210220FFF7EEFE54A0FFF764FF8F
:10257000002210215046FEF7ECF91420FFF7C0FCB2
:10258000012822D1216AFFF7DEFE226A307809EBAA
:102590008201303841F82C0C3D48FFF74DFF206A8E
:1025A000401C206230782A2802D023280DD110E068
:1025B0000220C4E90408FFF76BFC6060C4E90875F9
:1025C000FFF7BEFE5846FEF7BDF820690128BDD0D2
:1025D0004FE0C4E90458C4E9087569E7FFF736FC21
:1025E000FFF740FC00210120FFF7ADFE39A0FFF707
:1025F00023FF00210220FFF7A6FE30A0FFF71CFFFB
:102600002820FFF77DFC012833D1216AFFF79BFECC
:10261000226A307809EB8201303841F82C0C1C48D2
:10262000FFF70AFF206A401C206230782A280CD16C
:10263000C4E90458C4F81880FFF72AFC61682762CF
:10264000C1EB011100EB8100A0603078232802D09B
:1026500043280ED111E0C4E90458206A801E20628C
:10266000FFF716FC61682762C1EB011100EB8100E6
:10267000A06020690228B0D1B0E7FFF761FE2561B4
:10268000E56015E70054004044000020A0860100EA
:1026900000000020000C0140736F20676961793AE7
:1026A000200000006C65643A204F4E002564000055
:1026B0002020202020202020000000006C65643AAB
:1026C000204F4646200000006E68617020706875DB
:1026D000743A20006E68617020676961793A200061
:1026E0002DE9F04D1D460C4698B0174621F00041EB
:1026F00023F00043002814BF4FF0010C4FF0000CF2
:102700000CEB440CFE4A0CEB02064FEA620C6645E9
:102710002BD33E0018BF012606EB45061644F94AA6
:10272000964222D3F84A53EA070C02D0944205D1CC
:1027300048B918B000201146BDE8F08D002808BF48
:102740004FF0000C01D04FF0010C0CEB440212F5DD
:10275000001F0AD8002F14BF4FF0010C4FF0000CDF
:102760000CEB450212F5001F07D918B03A462B466C
:102770002146BDE8F04DFFF78BBA0022DFF88CA3AD
:10278000002CB8BF534526DADFF884C36345A8BFE1
:10279000022220DADFF870C39C451CDCDFF874C32A
:1027A0000CEB235CBCF1140F08DDCCF1340627FAE6
:1027B00006FC0CFA06F6BE420DD108E05FB9CCF17A
:1027C000140623FA06FC0CFA06F69E4203D10CF01E
:1027D0000102C2F1020251EA000C19D1002D17DAF0
:1027E000002C18BF022A01D0012A07D00220FFF7CF
:1027F00077FA18B0BDE8F04DFFF742BA0220FFF7B4
:102800006FFAFFF73DFA18B081F00041BDE8F08D96
:10281000B7F1000C6CD1534525D104F1804212F57B
:10282000801201BF00280020B74918B008BFBDE8DA
:10283000F08DB548884207DC002DA1BF60462946CF
:1028400018B0BDE8F08D07E0281E05DA80F00041E1
:1028500018B06046BDE8F08DAF497944D1E9000178
:1028600018B0BDE8F08DDFF8A0C2634525D1002D7A
:102870001FDA19B1514512D1D8B909E0002840F04A
:10288000EC82A24A214618B062F31E01BDE8F08D29
:102890000020214618B060F31E01BDE8F08D08DA73
:1028A00018B02346BDE8F04D024600206146FDF712
:1028B00044BE18B02146BDE8F08D514518DAB5F197
:1028C000804F0DD0A5F1005CBCF1FF5C10D1B4F1DC
:1028D000000C0DDB18B06146BDE8F04D00F0ECBB1C
:1028E000234618B00246BDE8F04D1946FDF7EFBC8F
:1028F000060024F0004C3BD1D9B1514533D1002C16
:1029000006DD002DA1BF0020514618B0BDE8F08DB6
:10291000002C01DD002D1BDB002C13DA002D11DB58
:10292000012A4FF0000014BF78497C4918B0BDE877
:10293000F08D022A18BF002C0AD0012A08D1002CE1
:1029400006DA0AE0002CB8BF002D11DA012A04D003
:10295000002018B00146BDE8F08D18B000204FF0FF
:102960000041BDE8F08DA1F14050B0F17F601AD078
:10297000012000EBE47050EA020421D0624C521EA8
:102980004FF0000B104304BF4FF0000B644C654840
:1029900083427CDD644A654893421FDD884217DB31
:1029A000002D25DB37E0002C00DA4AB1022A0CBFEB
:1029B00001204FF0FF3018B0BDE8F04DFDF7F9BC35
:1029C0000120FFF78DF918B0BDE8F04DFFF762B9AF
:1029D0004D4A8A4202DC002D0ADC1CE0814202DA08
:1029E000002D18DA04E0484B994220DD002D12DD5D
:1029F0000220FFF775F9FFF753F905460E4600224E
:102A0000534658462146FDF762FC18B066F31E0196
:102A10002846BDE8F08D0220FFF762F9FFF748F97C
:102A20000A46214618B062F31E01BDE8F08D00226F
:102A300030466146FDF745FC80460E466FF00102C8
:102A4000FDF7EAFD4FF05532394BFDF73DFC4246AC
:102A50003346FDF73CFC0022364BFDF735FC824641
:102A600042463346049110461946FDF730FC524663
:102A7000049BFDF72CFC8A4600904FF0C0422E4B81
:102A800040463146FDF723FC2C4A2B4B00E027E063
:102A9000CDE9060151460098FDF719FC82460191E7
:102AA000274A284B40463146FDF711FC5246019B10
:102AB000FDF707FC82460B4602460591DDE906015B
:102AC000FDF75EFBDDE90623002688463046FDF76C
:102AD000F8FB5246059BFDF7F7FB024600F07EB976
:102AE0000020B1F5801F07DA352230466146FDF738
:102AF00093FD06466FF0340000EB215024E0000007
:102B0000FFFF1F00FFFF0F000000F03F0000F07FFD
:102B10000000404301FCFFFF4A0900000000F0FFF5
:102B20000000F0BF0000E0410000F043FFFFEF3F76
:102B30005555D53F0000E03F4715F73FFE822B6516
:102B400044DF5DF80BAE543EA0F2FF300190C1F3BC
:102B5000130040F07F6141F040510291FE498842EC
:102B6000D8BF002004DDFD498142C8BF012001DD3E
:102B70000D9008E000200D900198401C01900298F3
:102B8000A0F5801002900299F54878440B910D99B8
:102B900000EBC100D0E900230F9330460A920B9955
:102BA000FDF78FFBCDE90601DDE90A2130460F9BD9
:102BB000FDF7E6FA02460B460020EA49FDF7BDFCA8
:102BC000059102460B460090DDE90601FDF77FFB0B
:102BD0001490E5488A464FF000087844029900684E
:102BE00012904FF0005040EA61010D980F9B01EBED
:102BF000804000F5002109910A9A1298FDF761FBC7
:102C000032460B9BFDF760FB42465346FDF75FFBE8
:102C10000646029140465146099B129AFDF757FB22
:102C2000DDE90623FDF750FB3246029BFDF749FB29
:102C3000059B009AFDF74BFB0091149A04905346B4
:102C400010461946FDF743FB06460246C7480B46A9
:102C5000029106217844FEF7BDFFCDE90510029BE5
:102C6000324610461946FDF732FBDDE90532FDF725
:102C70002EFB05910646534640461946149AFDF729
:102C80007FFA009B049AFDF722FB3246059BFDF775
:102C900077FACDE905104246534610461946FDF72E
:102CA00016FB0022B24B02910A90FDF769FADDE9AA
:102CB0000532FDF765FA0E464246AD4B4046FDF73C
:102CC00000FB029B0A9AFDF7FCFADDE90532FDF7ED
:102CD000FBFA424602910A90334610465146FDF7F0
:102CE000F6FACDE906015346149A02990A98FDF7BF
:102CF000EEFA8A4602903346424600990498FDF760
:102D0000E6FA5346029AFDF73BFA82460B46024624
:102D10000591DDE90601FDF733FADDE90623002020
:102D200088460646FDF7CDFA5246059BFDF7CCFADC
:102D3000824609914FF060428E4B30464146FDF786
:102D4000C6FA049006918C4A8A4B50460999FDF7C1
:102D5000BEFA82460291894A894B30464146FDF7C8
:102D6000B6FA5246029BFDF70BFA864B7B440D9A4E
:102D700003EBC203D3E90023FDF702FA0E9007919B
:102D80000198FDF716FB0591DDE9061382460E9AC0
:102D90000498FDF7F5F97C4A7A440D9B02EBC303D6
:102DA000D3E9002300930292FDF7EAF95246059B0E
:102DB000FDF7E6F90026884652463046059BFDF7AA
:102DC00080FA009B029AFDF77CFA069B049AFDF7B5
:102DD00078FA079B0E9AFDF777FA024600200B4619
:102DE000029038462946FDF772FA824601912B4639
:102DF00038461946029AFDF764FA32464346FDF713
:102E000066FA5246019BFDF7BBF907468A463246F1
:102E1000434629460298FDF75AFA05460E463A46B9
:102E20005346FDF7ADF9594A8846914221DBA8EB9C
:102E3000020353EA000210D12A463346FDF741FA55
:102E4000CDE90401524A534B38465146FDF798F9F3
:102E5000DDE90423FDF7F8FB21D20220FEF740FF55
:102E6000FEF71EFF0A46214618B062F31E01BDE8B8
:102E7000F08D494B28F000429A4210D3474A08EBA4
:102E8000020353EA00027FF4C6AD2A463346FDF73B
:102E900018FA3A465346FDF7D7FB7FF6BCAD002241
:102EA000019228F000403E493E4A01EB2051824207
:102EB00023DA481C4FF4801121FA00F040443A4ACA
:102EC000C0F30A517A44394BA1F2FF31CB4020EADA
:102ED0000303C0F3130040F48010C1F11401C84093
:102EE00012680190B8F1000FBCBF40420190284623
:102EF0003146FDF7E6F905460E462A463346384682
:102F00005146FDF73DF94FF000084246284B404638
:102F10000591FDF7DCF9CDE90601264A264B40462E
:102F20000599FDF7D4F9009102902A4633464046B0
:102F30000599FDF7C6F93A465346FDF7C5F91F4A0C
:102F40001F4BFDF7C4F9009B029AFDF719F90746DC
:102F5000884602460B4635E08E9803007AB60B0091
:102F6000920500000000F03FCA050000F8040000D0
:102F70000000084009C7EE3FFD033ADCF5015B1491
:102F8000E02F3EBED00300009403000000009040FC
:102F9000FE822B654715973C00CC904000346F3F74
:102FA00001FCFFFF0000E03FE0020000FFFF0F0018
:102FB000432EE63F396CA80C615C20BEEF39FAFE67
:102FC000422EE63FDDE90601FDF7DAF8DDE90623EA
:102FD00005460E46FDF775F93A464346FDF774F986
:102FE0000F462A463346009010461946FDF76FF902
:102FF000824602462E4888460B4605217844FEF755
:10300000E9FD52464346FDF762F92A463346FDF78D
:103010005BF980468A463B4628463146009AFDF7D2
:1030200056F93B46009AFDF7ABF806910090002256
:103030004FF0804340465146FDF743F90F460C9050
:103040004246534628463146FDF741F93B460C9A25
:10305000FDF773FA069B009AFDF733F92A463346CB
:10306000FDF72FF90022134BFDF72EF905460198C5
:103070000E4601EB00510815002810DC28463146A9
:10308000019AFDF7C9FAFEF781FD042808BFFEF793
:103090000FFE28463146019AFDF7BEFA05460B465B
:1030A00018B02A4658462146BDE8F04DFDF70FB945
:1030B000800100000000F03F2DE9F04106460F4678
:1030C000FDF7ECFA041E0D4618BF0120284320F03E
:1030D0000040C0F17F6000F1E040C00F0ED0301C16
:1030E00018BF0120384320F00040C0F17F6000F19C
:1030F000E040C00F04BF0120FEF7F2FD2046294644
:10310000BDE8F0810000000000000000010203049F
:103110000607080900000000010203040000000087
:10312000000000000000F03F000000000000F83F39
:1031300000000000000000000000004003B8E23F73
:10314000000000000000000006D0CF43EBFD4C3E25
:10315000033333333333E33FFFAB6FDBB66DDB3F1A
:103160004D268F515555D53F01411DA96074D13F62
:1031700065DBC9934A86CD3FEF4E454A287ECA3F5C
:103180003E5555555555C53F93BDBE166CC166BFDE
:103190002CDE25AF6A56113FF16BD2C541BDBBBED7
:1031A000D0A4BE726937663E000000000000000037
:1031B000D03100080000002044000000C01C0008BE
:1031C0001432000844000020EC040000D01C000869
:1031D00000000000000000000000000000000000EF
:1031E00000000000000000000000000000000000DF
:1031F0000B00000000000000300000000000000094
:103200000100000010000000000000000024F40095
:0432100000000000BA
:04000005080000ED02
:00000001FF
