:020000040800F2
:1000000030050020C900000889190008D50F000834
:1000100000000000000000000000000000000000E0
:10002000000000000000000000000000D1190008DE
:100030000000000000000000CF190008D3190008DC
:10004000DB00000800000000DB000008DB00000807
:10005000DB000008DB000008DB000008DB00000814
:1000600000000000DB0000082D0100083901000835
:10007000DB000008DB000008DB00000800000000D7
:10008000DB000008DB00000800000000DB000008C7
:10009000DB000008DB000008DB000008DB000008D4
:1000A000D90F0008DB000008DB000008DB000008B7
:1000B000DB000008DFF80CD000F026F8004800470D
:1000C000B11A000830050020044880470448004762
:1000D000FEE7FEE7FEE7FEE7FEE7FEE7391A000867
:1000E000B5000008D2B201E000F8012B491EFBD296
:1000F00070470022F6E710B513460A460446194633
:10010000FFF7F0FF204610BD064C074D06E0E06803
:1001100040F0010394E8070098471034AC42F6D34E
:10012000FFF7CCFF5C1B00087C1B0008014800F0B7
:1001300054B80000A8000020014800F04EB80000AC
:10014000EC000020054A016811441422B1FBF2F1D1
:10015000890001640249C16370470000F8FFFDBFD8
:100160000000024030B590F840500124AC40C56B0F
:100170006C60046863604368102B036803D0996067
:100180000068C26030BD9A600068C16030BD7047D1
:1001900010B590F821100024022903D004218163B6
:1001A000012418E001680A6822F00E020A60016862
:1001B0000A6822F001020A6090F84020C36B012116
:1001C00001FA02F25A6080F82110002180F8201014
:1001D000416B01B18847204610BDF0B4C16B0D687A
:1001E00001680C68066C042202FA06F32B420FD059
:1001F00063070DD50B689B0603D40B6823F004033B
:100200000B6090F840108A40C16B4A60C16A1BE0E5
:10021000022303FA06F72F424FF0000C4FF00102C1
:1002200016D0A70714D50C68A40605D40C6824F0D2
:100230000A040C6080F8212090F840108B40C16BBC
:100240004B6080F820C0816A002918D0F0BC0847B4
:100250000823B3402B4212D0230710D50B6823F09C
:100260000E030B6090F84010C36B02FA01F1596065
:10027000826380F8212080F820C0016BE4E7F0BCA5
:10028000704770B5040025D0022084F82100226850
:10029000116843F6F0708143D4E901031843D4E9AF
:1002A00003352B43184363691843A3691843E36973
:1002B0001843084310602046FFF744FF0020A06267
:1002C000E06220636063A063012184F8211084F858
:1002D000200070BD012070BD70B5044690F820006C
:1002E000002501280CD0012084F8200094F821601A
:1002F0000020012E06D084F820000225284670BD7B
:10030000022070BD022684F82160A0632068066880
:1003100026F0010606602046FFF724FFE06A002869
:100320002068016802D041F00E0106E041F00A01A8
:1003300001602068016821F0040101602068016803
:1003400041F001010160D9E731B500F0CBF8009C24
:100350000546601C00D0641C00F0C4F8401BA0429D
:10036000FAD338BD2DE9F84FDFF860B100234FF024
:10037000010C4FF0030A4FF00F090BF1040E9DE042
:100380000CFA03F6344022007ED04C68022C01D0D7
:10039000122C0ED1DC0800EB8408D8F820405D0751
:1003A000EF0E09FA07F5AC430D69BD402543C8F8C7
:1003B000205007685D0091F804800AFA05F408F0FF
:1003C0000308A74308FA05F848EA0708C0F80080C0
:1003D0004F68012F05D0022F03D0112F01D0122F0B
:1003E00011D18768D1F80C80A74308FA05F848EACC
:1003F0000708C0F808804768B7430E79C6F30016AF
:100400009E403E434660C668A6438C68AC40344379
:10041000C4604C68E40050D52D4CA56945F0010539
:10042000A561A46923F0030504F001040094294C9C
:100430002E19B4689D072F0F09FA07F5AC43B0F1E8
:10044000904F04D0244DA84203D101250CE0002593
:100450000AE0224DA84201D1022505E0204DA84224
:1004600001D1032500E00525BD402543B560DBF83B
:1004700000405D464E689443F60300D514432C605B
:100480007546DEF8004000E017E04E689443B6037E
:1004900000D514432C600D4D08352C684E689443EC
:1004A000F60200D514432C60084D0C352C684E68BC
:1004B0009443B60200D514432C605B1C0A681446B2
:1004C000DA407FF45DAFBDE8F88F00000004014022
:1004D00000100240000001400004004800080048ED
:1004E000000C004801480068704700000800002028
:1004F00090F84120202A24D190F84020012A20D0D1
:10050000012280F84020242280F8412002681368EC
:1005100023F0010313600268136823F4805313600F
:10052000026813680B43136001680A6842F0010215
:100530000A60202180F84110002180F84010084610
:1005400070470220704790F84120202A22D190F86D
:100550004020012A1ED0012280F84020242280F869
:1005600041200268136823F00103136002681368D6
:1005700023F4706343EA0121116001680A6842F0C4
:1005800001020A60202180F84110002180F840100B
:1005900008467047022070477047704730B40368C0
:1005A0009A691968D40508D50C0606D5446C44F040
:1005B000010444644FF48074DC61530509D50B06D3
:1005C00007D5436C43F00803436404684FF4806329
:1005D000E361920509D5090607D5416C41F0020196
:1005E000416402684FF40071D161416C11F00B0F4E
:1005F00003D0416C30BC00F0F1BD30BC70470268E4
:1006000091691268436B002B00D018477047704700
:1006100070B5040004D094F84100002510B106E044
:10062000012070BD84F84050204600F0D7F8242007
:1006300084F841002068016821F0010101606068D0
:10064000216820F0706008612068816821F4004111
:100650008160E0680128A06807D040F40440216868
:100660008860E068022803D006E040F40040F6E726
:1006700021684FF40060486020684168114A1143C6
:1006800041602068C16821F40041C160D4E90401DF
:100690000843A16940EA01202168C860D4E9070144
:1006A0000843216808602068016841F00101016089
:1006B0006564202084F84100256384F842500020BE
:1006C00070BD00000080000270477047704770479F
:1006D000704700002DE9FC470446DDE90A7690F8F2
:1006E0004100984691468A4620286CD13FB336B3E4
:1006F00020688069C043000465D594F84000012853
:1007000061D0012084F840002434FFF7EBFE222161
:1007100061774021A1770025256244F8067B268079
:100720002A49C4F802102A49C4F80A1034F82A19D0
:10073000FF2907D9FF2121854FF0807606E00120AF
:10074000BDE8FC87618D21854FF000761921CDE948
:10075000001043464A465146204600F079FF30B12A
:10076000606C84F840500428E9D00320E8E7E16B8E
:1007700018483A468862E16B17480863E06BC56227
:10078000E06B45632168238D2431E06BFFF7A4FD06
:100790004FF41050009094F82820334651462046DC
:1007A00001F04AF8608D218D401A608584F8405030
:1007B0002068016841F4004101601121204600F0E9
:1007C00087FC0020BCE70220BAE700000000FFFF22
:1007D0008D1500083910000827100008F0B587B003
:1007E000064614216846FFF784FCDFF8FCE0D6F8E3
:1007F00000C000243D4D1223012003213C4A8027E4
:10080000F44532D1D5F814C04CF4802CC5F814C08E
:10081000D5F814C0CDE902010CF4802CCDF814C039
:100820004FF4407CCDE900C3049069461046FFF7C1
:1008300099FDE86940F40010E861E8692E4D00F484
:10084000001005902B48C5E90004C5E902472C615A
:100850006C61AC612846EC61FFF713FD08B1FFF74E
:1008600096FCF5636E6207B0F0BDDFF890E0F445EA
:10087000F9D1D5F814C04CF4802CC5F814C0D5F8C3
:1008800014C0CDE902010CF4802CCDF814C04FF453
:10089000406CCDE900C3049069461046FFF762FD45
:1008A000E86940F48000E861E869154D00F48000D3
:1008B00005901048143001C5102091C5104845F826
:1008C00010496C61AC61EC61FFF7DBFC08B1FFF72C
:1008D0005EFCB5630022114618206E6200F05DF8E0
:1008E000182000F051F8BEE700540040001002400C
:1008F0000004004830000240A800002000580040DA
:10090000EC0000207047704702480168491C0160F4
:100910007047000008000020064810B5016841F04B
:1009200010010160002000F007F800F017F8002027
:1009300010BD00000020024010B5044600F046F94A
:100940004FF47A71B0FBF1F000F030FB0022214649
:10095000501E00F022F8002010BD0000094808B524
:10096000816941F001018161816901F0010100911A
:10097000C16941F08051C161C06900F080500090B0
:1009800008BD00000010024000F01F010120884057
:100990004FF0E021C1F80001704700F0F6BF000001
:1009A0002DE9F84305460068364CC00356D5E0698A
:1009B0000026C00008D4E06940F08050E061E069A2
:1009C000012600F0805000902F480168C90512D41C
:1009D0000168804641F480710160FFF783FD07469E
:1009E00005E000BFFFF77EFDC01B642825D8D8F8BE
:1009F0000000C005F6D5206A10F4407023D0A98805
:100A000001F4407181421ED0206A216A20F44070B6
:100A100041F480312162216A21F480312162206217
:100A2000C00710D0FFF75EFD074641F2883807E0A7
:100A3000FFF758FDC11B414502D90320BDE8F883EB
:100A4000206A8007F4D5206A696820F44070084362
:100A500020621EB1E06920F08050E0612878C00774
:100A600005D0206BA96820F0030008432063287894
:100A7000800605D5206BE96820F01000084320634C
:100A80000020DBE700100240007000402DE9F04735
:100A9000DFF8288105460E46D8F8000000F0010076
:100AA000B0420CD2D8F8001021F001013143C8F84F
:100AB0000010D8F8000000F00100B04263D128789F
:100AC0003F4C800705D56068A96820F0F000084316
:100AD00060602878C00745D06868012816D0216872
:100AE000022816D0890700294DDA616821F0030138
:100AF00001436160FFF7F6FC6968074641F2883000
:100B000001290FD00229814619D027E021688903E5
:100B1000E9E78901E7E700BFFFF7E4FCC11B4945AE
:100B200001D918E081466068C0F381000128F3D143
:100B300018E000BFFFF7D6FCC11B49450BD8606821
:100B4000C0F381000228F5D10CE000BFFFF7CAFC1A
:100B5000C11B494502D90320BDE8F087606810F049
:100B60000C0FF3D1D8F80010404601F00101B1425A
:100B70000BD9016821F0010131430160006800F0E8
:100B80000100B04201D00120E6E72878400705D5F2
:100B90006068E96820F4E0600843606000F01CF8D9
:100BA0006168084AC1F30311515CC84006490860F6
:100BB0000020FFF7C1FE0020CEE700000020024029
:100BC000001002404C1B00080C0000200148006887
:100BD000704700000C00002010B513A288B00FCAA7
:100BE0008DE80F0014A304AC0FCB84E80F00164B64
:100BF0005A68164802F00C0104290FD008290DD1BB
:100C0000C2F38344DB6A1DF8041003F00F0304AC45
:100C1000D203E35C04D5B0FBF3F0484308B010BD49
:100C20000B484843FAE700000203040506070809D9
:100C30000A0B0C0D0E0F1010010203040506070825
:100C4000090A0B0C0D0E0F100010024000127A0062
:100C500000093D002DE9F84304460078D14DC00756
:100C600046D06868C0F38100012807D06868C0F3E7
:100C70008100022809D16868C00306D5286880036E
:100C800036D5606800287DD032E0606801280AD03F
:100C900008B1052811D0286820F480302860286821
:100CA00020F4802002E0286840F4803028606068EA
:100CB00088B1FFF717FC064609E0286840F4802059
:100CC0002860F0E7FFF70EFC801B642872D82868C4
:100CD0008003F7D50CE0FFF705FC064605E000BFF2
:100CE000FFF700FC801B6428F0D828688003F7D445
:100CF000207880073ED5686810F00C0F07D0686830
:100D0000C0F38100022809D16868C00306D42868AE
:100D1000800717D5E068012834D113E0E068002887
:100D2000286817D040F001002860FFF7DBFB06467B
:100D300005E000BFFFF7D6FB801B0228C6D8286855
:100D40008007F7D52868216920F0F80040EAC10043
:100D500028600FE020F001002860FFF7C3FB064683
:100D600005E000BFFFF7BEFB801B0228AED8286855
:100D70008007F7D42078000726D5E0690028686A44
:100D800011D000E00BE140F001006862FFF7AAFB20
:100D9000064604E0FFF7A6FB801B022896D8686A87
:100DA0008007F7D510E020F001006862FFF79AFB9A
:100DB000064606E07DE000BFFFF794FB801B02289B
:100DC00077D8686A8007F7D4207840075DD5E8694E
:100DD0000026C00008D4E86940F08050E861E86966
:100DE000012600F0805000906F480168C90512D4B8
:100DF0000168804641F480710160FFF773FB07468C
:100E000005E000BFFFF76EFBC01B642851D8D8F87F
:100E10000000C005F6D5A06801280AD008B1052851
:100E200013D0286A20F001002862286A20F004000C
:100E300002E0286A40F001002862A06841F2883888
:100E400088B1FFF74FFB074609E0286A40F004002D
:100E50002862EEE7FFF746FBC11B414529D8286A07
:100E60008007F7D50CE0FFF73DFB074605E000BF24
:100E7000FFF738FBC11B41451BD8286A8007F7D410
:100E80001EB1E86920F08050E8612078C00639D5AD
:100E9000606901280ED0401D686B27D040F0040027
:100EA0006863686B20F001006863FFF71BFB064670
:100EB00025E06CE0686B40F004006863686B40F00C
:100EC00001006863FFF70EFB064604E0FFF70AFB2C
:100ED000801B02285BD8686B8007F7D5686BA16917
:100EE00020F0F80040EAC10068630BE020F0040045
:100EF0006863F3E7FFF7F6FA801B022847D8686BB0
:100F00008007F7D4206A88B36968C1F38101022998
:100F100045D00228286820F08070286003D0FFF7B1
:100F2000E1FA044636E0FFF7DDFA064605E000BFC9
:100F3000FFF7D8FA801B022829D828688001F7D447
:100F4000E86AE16A20F00F000843E862D4E909107A
:100F50000843696821F4741108436860286840F008
:100F600080702860FFF7BEFA044606E015E000BF77
:100F7000FFF7B8FA001B022809D828688001F7D5C6
:100F80000BE000BFFFF7AEFA001B022802D90320D6
:100F9000BDE8F88328688001F4D40020F8E7012038
:100FA000F6E70000001002400070004010B5401E3F
:100FB000B0F1807F01D3012010BD4FF0E0246061CB
:100FC0000321081F00F0E1FC0020A0610720206140
:100FD000002010BDFEE7000005480068806910F49D
:100FE000E06F034801D0FFF7D9BAFFF708BB000054
:100FF0005C00002010B5406A01684A6842F4004273
:101000004A60826B00215163C26B516390F84110BA
:10101000602902D0FFF7FBFA10BD202180F84110B3
:10102000FFF7BAFA10BD406A01684A6842F400420C
:101030004A60102100F0D2B810B5446A20680168F7
:1010400021F400410160608D40B1218D606A421839
:101050006262608DFF2807D9FF2006E02046BDE8C8
:101060001040122100F034B8608D2085216883B2D1
:101070002431E06BFFF730F9F0E710B50022CC0720
:101080004FF0280306D090F84140422233EA04048E
:1010900000D0F2228C0707D590F8414042F044027C
:1010A000A34301D042F0B0024B0701D542F0B80291
:1010B00011238B4301D142F0900212238B4301D1C3
:1010C00042F060020068016891430160002010BD99
:1010D00030B5154D1223446B00228B43AC4202D035
:1010E000124DAC420BD14C0700D5B82211248C43D1
:1010F00001D142F0900283B942F060020DE04C074A
:1011000000D5B822CC0701D042F0F202890701D500
:1011100042F0F4020BB942F020020068016811436A
:101120000160002030BD00008D150008BF160008CA
:1011300001688A69D243920701D400228A6200685A
:101140008169C943C90703D0816941F00101816107
:1011500070472DE9F041044690F841002821814371
:1011600020684FF000054FF0080304D0C36184F8F5
:101170004050BDE8F0818169C1F300478169FE22DA
:1011800002EA11468168C1F30902C168D4F80CC0B3
:1011900001F0FE01BCF1020F13D14FF0060C06F076
:1011A00006060CEAD21C66450AD1A16C491CA16452
:1011B000A16C0229DDD1A564C36184F8405007E029
:1011C0000E4604212046FFF758FF84F8405032466F
:1011D00039462046FFF7E1F9CBE7000070B500255E
:1011E000044680F842503248E0626585606C0843EE
:1011F000606494F841002026282827D094F8410004
:10120000292823D094F841002A281FD007212046FE
:10121000FFF733FF94F84100602801D084F8416063
:1012200025636563206801684A042249026818D56D
:1012300022F480420260A06B416384F84050A06BAE
:10124000FEF7A6FF002829D0A06B1AE00321204654
:10125000FFF713FF282084F84100256316486063D8
:10126000E0E7120411D5026822F400420260E06B4C
:10127000416384F84050E06BFEF78AFF00280DD0F0
:10128000E06B416BBDE87040084794F8410060286E
:1012900005D084F840502046FFF7B9F970BD84F8B6
:1012A000416084F840502046FFF776F970BD000099
:1012B0000000FFFFF50F00082917000870B504466D
:1012C0001448E06200252563202084F8410084F85A
:1012D00042506563480710D52068416A606A421C25
:1012E00062620170208D40B1401E2085608D401EDD
:1012F0006085606C40F00400606407212046FFF7C1
:10130000BCFE21681020C86184F840502046FFF7D9
:10131000DBF970BD0000FFFF70B5044600682026B1
:10132000C66120684268274B1A4042600025256349
:1013300025486563E062C80606D521681020C861AB
:10134000606C40F0040060642046FFF7F1FE03216A
:101350002046FFF792FE606CC8B994F841006028FF
:1013600015D094F84100212817D094F84100222884
:101370000CD184F8416094F8420084F8425040282F
:1013800084F84050204619D0FFF79FF970BD616C7A
:101390002046BDE87040FFF721BF84F8416094F813
:1013A000420084F84250402884F84050204602D041
:1013B000FFF78CF970BDFFF78BF970BDFFF787F968
:1013C00070BD000000E800FE0000FFFF70B504469D
:1013D000006820250E46C56121680820C8610721E4
:1013E0002046FFF74AFE2068416841F40041416011
:1013F000206841682F4A114041602046FFF798FE5F
:1014000020680168490402D40168090407D594F8EA
:101410004110212930D0E16B096849686185618DEF
:1014200019B1616C41F00401616471070FD5416A23
:10143000606A421C62620170208D40B1401E2085AE
:10144000608D401E6085606C40F004006064002088
:10145000206384F842006063616C79B1616C20465E
:10146000FFF7BCFE94F84100282813D131462046EE
:10147000BDE87040FFF722BFA16BCDE7E26A0E49DD
:101480008A4208D0E16284F8415084F84000204646
:10149000FFF71AF970BD94F8411084F841502229E1
:1014A00084F84000204602D0FFF72DFA70BDFFF708
:1014B00029FA70BD00E800FE0000FFFF70B50025AE
:1014C000044680F8425090F841102820292911D074
:1014D00094F841102A290CD184F84100222020637D
:1014E00002212046FFF7C9FD84F840502046FFF74F
:1014F00009FA70BD84F841002120206301212046B3
:10150000FFF7BBFD84F840502046FFF7FCF970BDA3
:101510002DE9F0410446006890460E468069C043BC
:10152000C0062ED40025202720688069C04380068D
:1015300011D5701CF8D02EB1FEF7D4FFA0EB080037
:10154000B042F1D984F8417084F8425084F8405098
:101550000320BDE8F08121681020C8612068C761C0
:101560002046FFF7E5FD54F8440B4168064A114058
:101570004160042044F820096777A577257701208A
:10158000E7E70020E5E7000000E800FE38B5044684
:1015900090F84000012817D0012084F84000C806C8
:1015A0004FF0000512D5D00610D521681020C86173
:1015B000606C40F00400606412212046FFF788FD53
:1015C0002046FFF7B5FD3FE0022038BD080634D5C0
:1015D000500632D52068016821F040010160608D1D
:1015E00030B320684068C0F30901608DFF2804D93A
:1015F000FF2020854FF0807303E0608D20854FF041
:101600000073009594F82820204600F015F9608DAD
:10161000218D401A608594F84100222820680168D5
:1016200003D041F4804101600EE041F40041FAE74B
:1016300040212046FFF7D2FD06E0880604D590063B
:1016400002D52046FFF768FE84F84050002038BDE0
:101650002DE9F84304461646DDE908974FF400509B
:101660009846DAB200900023204600F0E5F83A46AA
:101670004946204600F01BF918B1606C04281CD0C4
:1016800018E0F5B2B8F1010F09D02168300A88627C
:101690003A464946204600F00AF90028EDD1206874
:1016A00085624B46002240212046009700F0D6F884
:1016B000002800D00320BDE8F8830120FBE710B527
:1016C000044690F84000012817D0012084F840001B
:1016D000C80616D5D00614D594F8410021280ED09E
:1016E000E06B00684068102100282068C16117D0B5
:1016F000606C40F00400606412E0022010BDA06B3A
:10170000EFE7080705D5100703D521680820C86151
:1017100006E0880604D5900602D52046FFF756FE5F
:10172000002084F8400010BD70B5044690F84000D9
:1017300015460E46012811D0012084F840003D498D
:10174000F0062ED5E8062CD5628D102042B1216816
:10175000C861606C40F0040060645FE0022070BD0E
:10176000E36A4FF00072934202D0E36A934203D1DE
:1017700094F84120282A09D0E26A8A4203D094F8DA
:101780004110292907D02168C86147E03146204629
:10179000FFF794FD42E02168C8612046FFF7C8FCCE
:1017A00039E0700715D5680713D5608D58B12068EA
:1017B000426A606A431C63620270208D401E20856D
:1017C000608D401E6085608D40BBE06A884222D1FA
:1017D00024E0300706D5280704D531462046FFF718
:1017E000B8FC1BE0B00719D5A80717D5608D60B10C
:1017F000606A411C6162216800788862608D401EC9
:101800006085208D401E208508E0E06AB0F1807F71
:1018100001D0E06A10B92046FFF750FEB00605D5AA
:10182000A80603D531462046FFF7D0FD002084F8F6
:10183000400070BD0000FFFF70B50568049E6C6835
:1018400005480440C1F3090040EA02401843304310
:101850002043686070BD0000009800FC2DE9F04155
:101860001D4617460E460446DDF8188013E0681C36
:1018700011D02DB1FEF736FEA0EB0800A8420AD920
:10188000202084F84100002084F8420084F84000C1
:101890000320BDE8F0812068806936EA000004D0AA
:1018A0000020B842E3D00020F3E70120F9E770B54B
:1018B00016460D4604461CE0324629462046FFF7F0
:1018C00027FE08B1012070BD681C12D025B1FEF7BB
:1018D00009FE801BA8420CD954F8440F40F02000A8
:1018E00044F80409202060700020A07020700320BC
:1018F00070BD20688069C0438007DDD4002070BDC2
:101900000E4810B50C4901600D4941600421816009
:101910000121C1600021016141618161C1610162F8
:10192000FEF776FE00210548FEF7E2FDBDE8104017
:1019300000210248FEF707BE0054004010000020BE
:101940000E0900200E4810B50C4901600D49416098
:10195000042181600121C160002101614161816137
:10196000C1610162FEF754FE00210548FEF7C0FD8B
:10197000BDE8104000210248FEF7E5BD00580040D8
:101980005C000020280C200070478307FF22DB0E3C
:101990009A408907090E994000280DDA00F00F00DF
:1019A000083820F0030000F1E020D0F81C3D9343FC
:1019B0000B43C0F81C3D704720F0030000F1E0200D
:1019C000D0F8003493430B43C0F80034704770479D
:1019D0007047FEF799BF30B595B030216846FEF7E5
:1019E00088FB00240D941294012003900E9402258C
:1019F000139410200C940F9404901094119400955B
:101A000008954FF42010CDE9094068460B94FFF784
:101A100021F90720CDE90C056802CDE90E4001212E
:101A20000CA8FFF733F820201090139410A8FEF7AD
:101A3000B7FF15B030BD00001248016841F0010148
:101A400001604168104A1140416001680F4A11402D
:101A50000160016821F480210160416821F47C115A
:101A60004160C16A21F00F01C162016B40F21312A3
:101A700091430163416B21F00101416300218160C9
:101A800070470000001002400CB8FF08FFFFF6FE90
:101A900002E008C8121F08C1002AFAD17047704737
:101AA000002001E001C1121F002AFBD17047000095
:101AB0001CB5FEF731FFFFF78EFF2148416941F465
:101AC00080014161416901F480010091416941F463
:101AD00080214161416901F480210091416941F413
:101AE00000314161416901F400310091416941F0E7
:101AF000010141614069002200F00100009011469F
:101B00000A20FEF74AFF0A20FEF73EFF0022114698
:101B10000B20FEF742FF0B20FEF736FFFFF7F0FE2B
:101B2000FFF710FF074C072501230022202106485C
:101B3000CDE90045FEF7CEFDC820FEF705FCF3E732
:101B400000100240000000201000002000000000F3
:101B50000000000001020304060708097C1B0008BE
:101B60000000002010000000901A00088C1B0008E4
:101B70001000002020050000A01A0008000000004E
:0C1B8000000000000000000000127A00CD
:04000005080000B53A
:00000001FF
